:200000000C9463000C948B000C948B000C94FB0C0C94FB0C0C94FB0C0C948B000C948B003C
:200020000C948B000C948B000C948B000C948B000C948B000C948B000C948B000C948B0068
:200040000C94590C0C948B000C94C90C0C94A30C0C948B000C948B000C948B000C948B0000
:200060000C948B000C948B0000000000240027002A0000000008000201000003040700009C
:200080000000000000000000000023002600290000000000250028002B000404040404045E
:2000A0000404020202020202030303030303010204081020408001020408102001020408CD
:2000C0001020730DCC1211241FBECFEFD8E0DEBFCDBF28E0ACE6B5E001C01D92A936B207AA
:2000E000E1F715E0A0E0B1E0E4E1FFE202C005900D92AC36B107D9F710E0C2E6D0E004C010
:200100002197FE010E947014C136D107C9F70E946D0E0C947D170C9400008CBD9DBD089542
:20012000833081F028F4813099F08230A9F008958730A9F08830C9F08430B1F480918000B2
:200140008F7D03C0809180008F7780938000089584B58F7784BD089584B58F7DFBCF8091CC
:20016000B0008F778093B00008958091B0008F7DF9CF1F93CF93DF93282F30E0F901EE58A7
:20018000FF4F8491F901E255FF4FD491F901E656FF4FC491CC23A9F0162F81110E949000AE
:2001A000EC2FF0E0EE0FFF1FE057FF4FA591B4918FB7F894EC91111108C0D095DE23DC932B
:2001C0008FBFDF91CF911F910895DE2BF8CFCF93DF9390E0FC01E255FF4F249186569F4F9F
:2001E000FC0184918823D1F090E0880F991FFC01E859FF4FA591B491FC01E057FF4FC591E3
:20020000D49161110EC09FB7F8948C91E22FE0958E238C932881E223E8839FBFDF91CF919D
:2002200008958FB7F894EC91E22BEC938FBFF6CF3FB7F8948091130690911406A091150600
:20024000B091160626B5A89B05C02F3F19F00196A11DB11D3FBFBA2FA92F982F8827BC01D2
:20026000CD01620F711D811D911D42E0660F771F881F991F4A95D1F708958F929F92AF9202
:20028000BF92CF92DF92EF92FF924B015C010E9418016B017C010E9418016C197D098E097F
:2002A0009F09683E734081059105A8F321E0821A9108A108B10888EEC80E83E0D81EE11C4C
:2002C000F11C81149104A104B10429F7FF90EF90DF90CF90BF90AF909F908F9008952FB732
:2002E000F89460910F067091100680911106909112062FBF0895CF93DF938091510890910A
:2003000052080A9764F4EFECF7E0D0E0C0E081919191892B51F02196CA30D105C1F7CFEF62
:20032000DFEFCE01DF91CF910895FE01EE0FFF1FEE0FFF1FED51F84F8AE090E0A0E0B0E00F
:2003400080839183A283B383FE01EE0FFF1FE153F84F87EF9AE091838083FE01EE0FFF1F75
:20036000E55FF74F81E090E091838083FE01ED5CF74F80830E946F01FE01EE0FFF1FEE0F51
:20038000FF1FE955F84F608371838283938380915108909152080196909352088093510863
:2003A000C0CFAF92BF92CF92DF92EF92FF920F931F93CF93DF936C017B018B01040F151F54
:2003C000EB015E01AE18BF08C017D10759F06991D601ED91FC910190F081E02DC6010995FD
:2003E000892B79F7C501DF91CF911F910F91FF90EF90DF90CF90BF90AF900895FC01538D0F
:20040000448D252F30E0842F90E0821B930B541710F0CF96089501970895FC01918D828D7D
:20042000981761F0A28DAE0FBF2FB11D5D968C91928D9F5F9F73928F90E008958FEF9FEF9B
:200440000895FC01918D828D981731F0828DE80FF11D858D90E008958FEF9FEF0895FC012C
:20046000918D228D892F90E0805C9F4F821B91098F73992708958BE196E00E942F0221E071
:20048000892B09F420E0822F089580E090E0892B29F00E943B0281110C9400000895FC0115
:2004A000A48DA80FB92FB11DA35ABF4F2C91848D90E001968F739927848FA689B7892C93BB
:2004C000A089B1898C91837080648C93938D848D981306C00288F389E02D80818F7D8083E1
:2004E0000895EF92FF920F931F93CF93DF93EC0181E0888F9B8D8C8D98131AC0E889F98907
:20050000808185FF15C09FB7F894EE89FF896083E889F98980818370806480839FBF81E030
:2005200090E0DF91CF911F910F91FF90EF900895F62E0B8D10E00F5F1F4F0F731127E02E30
:200540008C8D8E110CC00FB607FCFACFE889F989808185FFF5CFCE010E944F02F1CFEB8D50
:20056000EC0FFD2FF11DE35AFF4FF0829FB7F8940B8FEA89FB8980818062CFCFCF93DF9381
:20058000EC01888D8823B9F0AA89BB89E889F9898C9185FD03C0808186FD0DC00FB607FC20
:2005A000F7CF8C9185FFF2CF808185FFEDCFCE010E944F02E9CFDF91CF9108952091EB054A
:2005C0003091EC052817390771F49091E9058091EA05981741F0E091E905F0E0E855FA4FE1
:2005E000808190E008958FEF9FEF08950895EF92FF920F931F93CF93DF93DC015C96ED9021
:20060000FC905D97E114F10479F481E090E013969C938E93129790E080E0DF91CF911F9140
:200620000F91FF90EF9008955196ED91FC91529750968C915097982F90950FB75E962C9147
:200640005E97122F127021FD6095F8942081112319F1282B2083E7012197F1F728E0462F69
:2006600050E0308160FF1AC0382B3083E7012197F1F7BA0175956795215089F7112381F06B
:200680008081892380830FBF5C968D919C910197F1F781E090E0C1CF2923DCCF3923E5CFB7
:2006A0009081892BEFCF2091EB053091EC052817390761F48091EA052091E90590E0805CA5
:2006C0009F4F821B91098F739927089590E080E008952091EB053091EC0528173907B9F4AA
:2006E0009091E9058091EA05981789F0E091E905F0E0E855FA4F80812091E90530E02F5FD0
:200700003F4F2F7333272093E90590E008958FEF9FEF089590E080E0089508958EBD0000A3
:200720000DB407FEFDCF8EB508951F93CF93DF93182F80E591E00E948D00C3E5D8E060E0D5
:2007400088890E94B90083E00E948E03812F0E948E0380E00E948E03182F61E088890E94E6
:20076000B900812FDF91CF911F910895FF920F931F93CF93DF93F82E062F142F80E591E0C6
:200780000E948D00C3E5D8E060E088890E94B90085E00E948E038F2D0E948E03802F0E9446
:2007A0008E03812F0E948E0361E08889DF91CF911F910F91FF900C94B900CF93C82F482F9B
:2007C00060EE8FE00E94B6038FE00E949503982F907E81E09C1301C080E0CF910895FF92C4
:2007E0000F931F93CF93DF93C82FF62E172F042F80E591E00E948D0060E0809163080E94DA
:20080000B90082E00E948E038C2F0E948E03CF2DD12F0C0F1D2F111DC017D10721F0899131
:200820000E948E03F9CF61E080916308DF91CF911F910F91FF900C94B900CF93DF9300D054
:2008400000D0CDB7DEB79A01442755271C821B82922F6130E1F493709860622F660F660F55
:20086000660F607E962B9A8345E0369527954A95E1F7298344E0BE016F5F7F4F0E94EF0325
:200880000F900F900F900F90DF91CF9108959295990F907E9A8393E0369527959A95E1F774
:2008A000E8CF0F931F93CF93DF93082F162F80E591E00E948D00C3E5D8E060E088890E9485
:2008C000B90082E00E948E03802F0E948E03812F0E948E0361E08889DF91CF911F910F9193
:2008E0000C94B9004F925F926F928F929F92AF92BF92CF92DF92FF920F931F93CF93DF935D
:2009000000D000D0CDB7DEB7B12CA12C4090330350903403609035034E0184E0880E911C39
:2009200049825A826B82FE0131966F01FE2E0D2DF60111916F01812F0E94950383FD0DC047
:200940001F5F80E0FFEFAF1ABF0A823061F482E3A816B10429F796E072C0C814D90441F7A1
:2009600010E082E0EFCF92E3A916B104A1F34091580869E578E085E0810F0E94EF03809179
:200980006108813029F4809158088064809358086091580884E0810F0E94510440915408EF
:2009A00050915508609156087091570880915308813099F54C835B83AB0166277727842F68
:2009C00083708860942F990F990F990F907E892B8A8365E0569547956A95E1F7498344E0DF
:2009E0006F2D702F812F0E94EF03115048E068E0812F0E94B603D12CC12CEFEFCE1ADE0A04
:200A0000812F0E949503982F987083FF14C0F2E3CF16D10491F797E012C0CA0123E096956E
:200A200087952A95E1F789834295440F407E4A831C821B82D4CF82E3C816D10461F3892F40
:200A40000F900F900F900F90DF91CF911F910F91FF90DF90CF90BF90AF909F908F906F90C2
:200A60005F904F900895FF920F931F93CF93DF93C82FF62E172F042F80E591E00E948D00B9
:200A800060E0809163080E94B90083E00E948E038C2F0E948E03CF2DD12F0C0F1D2F111D2A
:200AA000C017D10729F080E00E948E038993F8CF61E080916308DF91CF911F910F91FF908C
:200AC0000C94B9000F931F93CF93DF9300D000D0CDB7DEB7182F10925308109254081092F8
:200AE0005508109256081092570844E0BE016F5F7F4F0E9433052A81898138E0839FC0018F
:200B00001124422F50E065E0559547956A95E1F7840F951F092E000CAA0BBB0B80935408A9
:200B200090935508A0935608B093570823FF29C032E0880F991FAA1FBB1F3A95D1F72370C9
:200B4000820F911DA11DB11DBA2FA92F982F88272B81820F911DA11DB11DBA2FA92F982F94
:200B600088272C81820F911DA11DB11D8093540890935508A0935608B093570881E08093B8
:200B800053088FEF810F0E949503082F84E0810F0E94950303FF16C091E090936108482F01
:200BA0004F704093580869E578E085E0810F0E9433050F900F900F900F90DF91CF911F91D2
:200BC0000F91089510926108EACFCF93DF9300D0CDB7DEB72FEF3FEF3A83298350E040E052
:200BE00046175707D4F429813A81FC01E40FF51FA081E981FA81EA27FF27EE0FFF1FEF5E64
:200C0000FE4F0190F081E02D232F33272E273F273A8329834F5F5F4FE3CF89819A810F90D6
:200C20000F90DF91CF910895CF92DF92EF92FF920F931F93CF93DF93DC01142FEB012196D9
:200C40007B0183E0E80EF11C8091270380937205D12CC12C96012F5F3F4FFD01EC0DFD1D3F
:200C60009081F901EE58FA4F908362177307C1F4BE0182E795E00E94E505CE58DA4F88839C
:200C8000F601EB58FA4F908388EB96E00E945303EC01892B39F088EB96E00E946903F4CF59
:200CA0006901D8CF8BE196E00E94BE02FE01EE58FA4F608188EB96E00E94F7022196CE1552
:200CC000DF05A4F365E070E080E090E00E943D010E946F016B017C01C0E088EB96E00E942E
:200CE0005303892BD1F0C11728F588EB96E00E946903909371058093700580917005909175
:200D0000710501E00C0FD0E0C557DA4F88830E946F016B017C01C02FE0CFC11758F40E9402
:200D20006F016C197D098E099F09663971058105910598F288EB96E00E945303892B29F090
:200D400088EB96E00E946903F5CFCC23D1F0C11317C0D0E08E0102501109B8018BE895E031
:200D60000E94E505F801E557FA4F2081281306C0C657DA4F8881C1E0891719F0CEEF01C0B0
:200D8000CFEF8C2FDF91CF911F910F91FF90EF90DF90CF900895FB0101900020E9F73197EC
:200DA000AF01461B570BDC01ED91FC910280F381E02D0994BC018BE196E00C94CB06CF92C7
:200DC000DF92EF92FF92CF93DF93C82F6A017B018AE593E00E94DA0680E80E94DD03D82F89
:200DE00084E793E0D11118C0C33099F1F8F4C13031F1C23049F1A701960160E080E00E9432
:200E00001D04809164080E94DD03D82F8AE993E0D11102C089ED93E00E94DA068D2FDF918A
:200E2000CF91FF90EF90DF90CF900895C430B1F0C53009F7A701960160E088E1E0CFA70110
:200E4000960160E084E0DBCFA701960160E088E0D6CFA701960160E080E1D1CFA701960162
:200E600060E084E1CCCFCF92DF92EF92FF92CF93DF93D82F6A017B0187EF93E00E94DA0621
:200E800080E80E94DD03C82F8FE094E0C11113C0A701960160E080E2D11184E20E941D04FD
:200EA000809164080E94DD03C82F88E394E0C11102C085E794E00E94DA068C2FDF91CF91DC
:200EC000FF90EF90DF90CF900895EC01009739F00E94CB066CE074E0CE010E94CB0661E056
:200EE0008DE00E94E70061E08DE00E94B9006AEF70E080E090E00E943D0160E08DE00E944B
:200F0000B9006AEF70E080E090E00E943D01EBCFFC0180819181009711F00C9427160895E3
:200F2000EF92FF920F931F93CF93DF93EC017B018A0188819981009729F02A813B8124170E
:200F4000350788F4B8016F5F7F4F0E94B016009791F0998388831B830A832C813D81232BF9
:200F600011F4FC0110821D830C83B701888199810E9476170CC088819981009711F00E947B
:200F80002716198218821D821C821B821A82CE01DF91CF911F910F91FF90EF9008950F932D
:200FA0001F93CF93DF93CDB7DEB761970FB6F894DEBF0FBECDBF2091A5073091A6072C302C
:200FC00031050CF062C021E030E030931A0620931906FE0135969DE0DF011D929A95E9F712
:200FE00002E210E020E030E009831A832B833C838D834F83588769877A871C861B861E86DE
:201000001D86188A1F8650E040E06EE074E0CE010B960E9490072091A5073091A6072C3024
:20102000310541F460E974E08091A3079091A4070E94650781E1829FD001839FB00D1124AB
:20104000A952B94FFE01319601900D928A95E1F78091A5079091A60701969093A60780939B
:20106000A5078091170690911806892B31F40E947B01909318068093170610921A0610928B
:201080001906CE010B960E94880761960FB6F894DEBF0FBECDBFDF91CF911F910F91089595
:2010A000CF92DF92EF92FF920F931F93CF93DF93CDB7DEB7A5970FB6F894DEBF0FBECDBF88
:2010C0008C011DA219821A821B821C821D821E821F82188619861A861B861C8644E068E0E6
:2010E00070E089E193E00E941406882359F090918B058091270398131EC280918C05811168
:201100001AC281E08DA31092230343E163E070E081E293E00E941406882321F190918B05E3
:2011200080912703981309C260918C0540918D0530918E0520918F0570E090E080E0CB0194
:2011400077276627942B632B722B0E94041320E030E04AE754E40E94E31469837A838B83B8
:201160009C8381E08DA38DA1813009F0E8C10E946F01C090A405D090A505E090A605F0908E
:20118000A7056C197D098E099F0960347E478540910580F48091A4059091A505A091A605D0
:2011A000B091A705892B8A2B8B2B21F00130110509F058C049815A816B817C818EE60E9416
:2011C000CF0769817A818B819C812091ED053091EE054091EF055091F0050E947614AB0161
:2011E000BC018DE60E94CF070E946F016093A4057093A5058093A6059093A7056091F10578
:201200007091F2058091F3059091F40520E030E0A9010E94FF128823C9F069817A818B81F1
:201220009C812091F1053091F2054091F3055091F4050E94761420E030E040E251E40E945A
:201240006513AB01BC018FE60E94CF0789819A81AB81BC818093F1059093F205A093F305E4
:20126000B093F4054FE063E070E084E293E00E941406882309F473C090918B058091270314
:2012800098138EC100918F05609190052091910570E090E080E0722B10E030E020E098010C
:2012A00011270027002711272F733327602B712B822B932B0E94041320E030E048EC52E4AF
:2012C0000E94E3146D877E878F87988B60919205009193054091940570E090E080E0CB013C
:2012E00077276627662777278F73992710E030E020E0142B602B712B822B932B0E9404134C
:2013000020E030E048EC52E40E94E314698B7A8B8B8B9C8B00919505609196052091970580
:2013200070E090E080E0722B10E030E020E0980111270027002711272F733327602B712B76
:20134000822B932B0E94041320E030E048EC52E40E94E3146D8B7E8B8F8B988F81E08DA383
:201360008DA1813009F01EC16D857E858F85988920E030E040E05FE30E9477140E945515E1
:201380000E940613AB01BC0180E70E94CF0769897A898B899C8920E030E040E05FE30E9408
:2013A00077140E9455150E940613AB01BC0181E70E94CF076D897E898F89988D20E030E048
:2013C00040E05FE30E9477140E9455150E940613AB01BC0182E70E94CF074CE063E070E0AE
:2013E00088E293E00E941406882309F458C090918B05809127039813E5C030918C05209155
:201400008D0560918E0570E090E080E0982F872F762F6627832B622B0E94041320E030E0E3
:2014200048EC52E40E94E314698F7A8F8B8F9C8F30918F05209190056091910570E090E081
:2014400080E0982F872F762F6627832B622B0E94041320E030E048EC52E40E94E3146D8F7A
:201460007E8F8F8F98A330919205209193056091940570E090E080E0982F872F762F66270C
:20148000832B622B0E94041320E030E048EC52E40E94E31469A37AA38BA39CA381E08DA31E
:2014A0008DA1813009F090C0698D7A8D8B8D9C8D20E030E040E05FE30E9477140E9455151B
:2014C0000E940613AB01BC0183E70E94CF076D8D7E8D8F8D98A120E030E040E05FE30E9498
:2014E00077140E9455150E940613AB01BC0184E70E94CF0769A17AA18BA19CA120E030E0B0
:2015000040E05FE30E9477140E9455150E940613AB01BC0185E7A5960FB6F894DEBF0FBEAA
:20152000CDBFDF91CF911F910F91FF90EF90DF90CF900C94CF0786EFE5CD86EF13CE0E948E
:201540006F010091A4051091A5052091A6053091A705601B710B820B930B60347E4785408D
:20156000910568F48091A4059091A505A091A605B091A705892B8A2B8B2B09F073CE0E9430
:201580006F016093A4057093A5058093A6059093A70540E050E0BA018FE60E94CF0762CEDD
:2015A00086EFDDCE40E050E0BA0180E70E94CF0740E050E0BA0181E70E94CF0740E050E0E6
:2015C000BA0108CF86EF6BCFA5960FB6F894DEBF0FBECDBFDF91CF911F910F91FF90EF901A
:2015E000DF90CF90089590E080E00C945008CF92DF92EF92FF920F931F93CF93DF9300D0DC
:2016000000D000D0CDB7DEB70091A5071091A6070115110599F41092180610921706269692
:201620000FB6F894DEBF0FBECDBFDF91CF911F910F91FF90EF90DF90CF900895809119069A
:2016400090911A06892B39F00E947B019093180680931706E4CF015011091A8219821C82EA
:201660001B821E821D8281E1809FF001819FF00D1124E952F94F628573856115710531F05B
:2016800046855785CE0101960E94900781E1809FF001819FF00D1124E952F94F868197819E
:2016A000A085B1852581408151816281738134813093010651602223F9F0CD80DE80E9804D
:2016C000FA80E2E0F6E090E080E0282FC816D90609F44BC08830910509F446C0D701A80F2C
:2016E000B91FE114F10421F410926F05AFE6B5E02C9121930196E9CF8093020690930306CC
:20170000A0930406B093050640935408509355086093560870935708109261081092530814
:2017200085E080935808E1E0F6E0A9E5B8E081918D9386E0E930F807D1F70E947204F82E5E
:20174000CE0101960E948807F11029C08091A5079091A6070097C1F563EC74E08091A307D2
:201760009091A4070E94650728E040935408509355086093560870935708109261081092B8
:2017800053082F5F20935808E1E0F6E0A9E5B8E081918D9386E0E930F807D1F7CECF81E119
:2017A000809FF001819FF00D1124E952F94F80898F5F808B863050F68091A5079091A607BB
:2017C000892B09F428CF40CF01979093A6078093A507F2CFCF92DF92EF92FF920F931F9332
:2017E000CF93DF937B018B01C42FD0E06C01C61AD70AC8018E199F098C179D0748F4C601DA
:20180000800F911F0E942314F80181938F01F1CFCE01DF91CF911F910F91FF90EF90DF90E7
:20182000CF900895AF92BF92CF92DF92EF92FF920F931F93CF93DF937B018B01C42FD0E063
:201840005C01A61AB70AC8018E199F098C179D0778F46501C00ED11EC6010E942314F80123
:2018600061918F01681779F3C6010E942B14EBCFCE01DF91CF911F910F91FF90EF90DF902D
:20188000CF90BF90AF90089542E06BE273E08AE090E00E94120C44E06DEE75E08CE690E0AC
:2018A0000E94120C44E06DEF75E088E790E00C94120C1F920F920FB60F9211242F933F9375
:2018C0008F939F93AF93BF9380910F0690911006A0911106B091120630910E0623E0230F18
:2018E0002D3758F50196A11DB11D20930E0680930F0690931006A0931106B0931206809136
:20190000130690911406A0911506B09116060196A11DB11D8093130690931406A0931506F0
:20192000B0931606BF91AF919F918F913F912F910F900FBE0F901F90189526E8230F029699
:20194000A11DB11DD2CF1F920F920FB60F9211242F933F934F935F936F937F938F939F939D
:20196000AF93BF93EF93FF938BE196E00E944F02FF91EF91BF91AF919F918F917F916F91EA
:201980005F914F913F912F910F900FBE0F901F9018951F920F920FB60F9211242F938F93AF
:2019A0009F93EF93FF93E0912B06F0912C068081E0913106F091320682FD1BC090818091AE
:2019C00034068F5F8F7320913506821741F0E0913406F0E0E55EF94F958F80933406FF9120
:2019E000EF919F918F912F910F900FBE0F901F9018958081F4CF1F920F920FB60F9211243F
:201A00002F933F934F935F936F937F938F939F93AF93BF93EF93FF93E091EB05F091EC057B
:201A2000309749F0A685B7858585968D91FF14C09C918923A1F4FF91EF91BF91AF919F9170
:201A40008F917F916F915F914F913F912F910F900FBE0F901F9018959C91892361F7A38932
:201A6000B4899C918589809589238C93868997890197F1F7608D718DA685B785558538E01B
:201A800020E0CB010197F1F7822F90E095958795282F4C91452309F02068315091F7868D5A
:201AA00081FD20958091EA0590E001968F7399273091E905381799F0A091EA05B0E0A855F6
:201AC000BA4F2C938093EA05828D938D0197F1F7A389B4898C919589892B8C93ACCF868D88
:201AE0008160868FF1CFCF93DF9310921E0610921D0688EE93E0A0E0B0E080931F0690937D
:201B00002006A0932106B09322068AE393E090931C0680931B0685EC90E09093280680933C
:201B2000270684EC90E090932A068093290680EC90E090932C0680932B0681EC90E090938E
:201B40002E0680932D0682EC90E09093300680932F0686EC90E09093320680933106109263
:201B600034061092350610923606109237068AE08093630861E00E94B90061E08091630850
:201B80000E94E7000E946F01C3E3D8E0EFECF7E047EA57E0199211921192DA016D937D9356
:201BA0008D939D93AD019F01225B3F4FD9011D921C92B7E0E33EFB0769F71092520810928D
:201BC0005108C7EDD6E01B861A861D861C861F861E8650E040E06EE074E0CE010A960E9470
:201BE0009007619627E0C33AD20769F71092A6071092A5071092A4071092A3071092BB0681
:201C00001092BA0688EE93E0A0E0B0E08093BC069093BD06A093BE06B093BF068CE493E0CC
:201C20009093B9068093B8061092CF061092CE061092D1061092D0061092D3061092D2061E
:201C40001092D5061092D4066091D6066E7F6D7F6093D6066695617081E0682783E00E9455
:201C6000B90061E083E00E94E700E1EBF0E0E491E093C806EDE9F0E0E491F0E0EE0FFF1F26
:201C8000E057FF4F859194919093CA068093C90660E082E00E94E7008091D60681FD04C055
:201CA00061E082E00E94B90082E08093C406E0EBF0E0E491E093C506ECE9F0E0E491F0E0AF
:201CC000EE0FFF1FEA57FF4F859194919093C7068093C606DF91CF910895CF93DF9300D03F
:201CE00000D0CDB7DEB7789484B5826084BD84B5816084BD85B5826085BD85B5816085BD7D
:201D000080916E00816080936E001092810080918100826080938100809181008160809331
:201D20008100809180008160809380008091B10084608093B1008091B00081608093B0004E
:201D400080917A00846080937A0080917A00826080937A0080917A00816080937A00809183
:201D60007A00806880937A001092C100E0912B06F0912C0682E08083E0912706F09128060A
:201D80001082E0912906F0912A0680E1808310923306E0912F06F091300686E08083E091EA
:201DA0002D06F0912E06808180618083E0912D06F0912E06808188608083E0912D06F091EC
:201DC0002E06808180688083E0912D06F0912E0680818F7D808342E0BE016F5F7F4F8AE093
:201DE00090E00E94EA0B29813A8180912B0390912C032817390709F42BC20E94440C1FB7B7
:201E0000F8948091E805811127C0E4EAF0E08491E8EBF0E09491E82FF0E0EE0FFF1FE85901
:201E2000FF4FA591B491EC91E92321F461E08AE00E94B90061E08AE00E94E7008CB58061DF
:201E40008CBD8CB580648CBD61E08DE00E94E70061E08BE00E94E7008091E8058F5F809360
:201E6000E8051FBF80E591E00E948D0060E0809163080E94B90080EC0E948E0361E080918A
:201E800063080E94B90083E290E00197F1F780E48093640880E80E94DD03882309F4E7C10A
:201EA0008FE094E00E94DA0640E050E06FEF71E080E00E94330740E050E060E071E080E041
:201EC0000E94DF0640E050E060E071E081E00E94DF0640E050E06FE071E081E00E94330785
:201EE00040E050E063E071E082E00E94DF0640E050E063E071E083E00E94DF0640E050E0F7
:201F000063E071E084E00E94DF0640E050E063E071E085E00E94DF061092640880E00E9462
:201F2000DD0360E089E00E94E7001092D3061092D2061092D1061092D0061092CF06109290
:201F4000CE068DE991E09093D5068093D4069091C406963108F047C02DEB30E03093CF066A
:201F60002093CE062BE931E03093D1062093D0062CE231E03093D3062093D2062091680033
:201F800084E0983048F031E09E3008F430E081E001C0880F3A95EAF7822B809368002DE64E
:201FA00030E0983050F02BE630E09E3030F02CE630E0963110F030E020E03093CC062093B9
:201FC000CB06292F30E0983008F0D7C181E001C0880F9A95EAF78093CD068091D4069091B5
:201FE000D5060197F1F78091D2069091D306892B49F1E091EB05F091EC0546E0E83BF4079E
:2020000009F1309739F0A389B4899C918589809589238C938091D6068E7F8093D6061092C7
:20202000EA051092E90588EB96E09093EC058093EB05E091CB06F091CC0680819091CD0697
:20204000892B808380915108909152080A9774F4EFECF7E010E000E081919191892B09F474
:2020600060C20F5F1F4F0A301105B1F764E670E080E090E00E943D0162E0262E312C0E948B
:202080006F012B013C01EFECF7E007EA17E01C830B8330E020E0AF0142595F4FDA011D920D
:2020A0001C92808191813296892BB1F1AB81BC814D915D916D917C911397DC968D909D909B
:2020C000AD90BC90DF9773016201C41AD50AE60AF70AC814D904EA04FB04F0F0480D591D2B
:2020E0006A1D7B1D4D935D936D937C931397C9018D5C974FDC018C91882371F042AD53ADAA
:202100004115510509F046C1CF0184599F4F41E050E0DC014D935C932F5F3F4F4B815C81B6
:202120004C5F5F4F5C834B832A30310509F0B3CFD12CC12C580156E9A50EB11CD5018D9198
:202140009C918130910509F445C1029709F448C1BFEFCB1ADB0A0E5F1F4FEAE0CE16D10493
:2021600049F7EBE7F0E08491E7EBF0E01491E3EAF0E00491011165C180E591E00E948D00B2
:2021800060E0809163080E94B90080EA0E948E0380E00E948E03182F61E0809163080E9452
:2021A000B90010FF6AC181E60E94620540E061E08CE20E94B60380915308882389F08091F1
:2021C000540890915508A0915608B0915708B0688093540890935508A0935608B0935708BC
:2021E00080916108882389F08091540890915508A0915608B0915708B06480935408909381
:202200005508A0935608B09357088091540890915508A0915608B091570880930A069093CE
:202220000B06A0930C06B0930D068091580880930906A9E5B8E0E1E0F6E090E09F01215021
:202240003640281739070CF020C12D912193F6CF44E06DEE75E08CE690E00E94EA0B44E004
:202260006DEF75E088E790E00E94EA0BC8CD8BEF94E00E94DA0660E88AE20E94510465EE34
:2022800089E20E94510463E888E20E94510485E295E00E94DA0620E030E0A90161E080E275
:2022A0000E941D0420E030E0A90161E084E20E941D0420E030E0A90161E080E00E941D0419
:2022C00020E030E0A90160E084E00E941D0420E030E0A90161E088E00E941D0420E030E0A7
:2022E000A90160E080E10E941D0420E030E0A90161E084E10E941D0420E030E0A90160E0B3
:2023000088E10E941D0410E360E0812F0E94510460E080E1810F0E94510460E080E2810F5D
:202320000E9451041F5F1E3379F760E080E60E94510460E080E70E94510463E08BE20E94DA
:2023400051046CE38CE00E94510460E08DE00E94510444E064E680E60E94B60340E060E63D
:2023600080E70E94B603809164080E94DD03882309F49ACD84E495E095CD9E3040F42850D4
:20238000310981E001C0880F2A95EAF724CE2E503109F7CF5F016EE4A60EB11CD5018D9113
:2023A0009C91841795070CF0B7CE6F01BCE6CB0ED11C61E070E0D6016D937C930196D5017C
:2023C0008D939C93841795070CF4A6CED6012D923C92A2CED8019896ED91FC910995B8CEF9
:2023E000D8019896ED91FC9109958091510890915208009709F4ACCEF80120A531A5232B58
:2024000009F4A6CE11A610A6F601ED5CF74F1082D5011D921C92F601EE0FFF1FEE0FFF1F66
:20242000E955F84F14AE15AE16AE17AEF801E858FF4F1182108201979093520880935108DC
:2024400087CE81110E949000E02FF0E0EE0FFF1FEA57FF4FA591B4918C91182309F48CCEB0
:2024600040E050E0452B09F40ACE0E943B02882309F405CE0E94000002CE11FF06C081E7BD
:202480000E94620540E062E093CE809101068A3539F390910906953019F7409102065091AE
:2024A00003066091040670910506883741F1C8F48C36B1F68091F1059091F205A091F305AE
:2024C000B091F4058093ED059093EE05A093EF05B093F0050E94440C81E090E00E9450088B
:2024E000BFCF8937A9F08A3709F0BACF4093F5055093F6056093F7057093F805B1CF4093C5
:20250000FD055093FE056093FF0570930006E2CF4093F9055093FA056093FB057093FC0578
:202520009FCFF801EE0FFF1FEE0FFF1FED51F84F88EB9BE0A0E0B0E080839183A283B38309
:20254000F801EE0FFF1FE153F84F83EF9AE091838083F801EE0FFF1FE55FF74F1182108226
:20256000F801ED5CF74F81E080830E946F01000F111F000F111FF801E955F84F608371838A
:20258000828393838091510890915208019690935208809351086ACDCF93DF938CE493E0CD
:2025A0009093B9068093B8068091EB059091EC05885B964071F4E091CB06F091CC06908191
:2025C0008091CD068095892380831092EC051092EB051092A6071092A5071092A4071092A2
:2025E000A307C3EAD7E06197CE010A960E94880786E0C73DD807B9F7DF91CF9108950E942D
:20260000411308F481E00895E89409C097FB3EF490958095709561957F4F8F4F9F4F9923D8
:20262000A9F0F92F96E9BB279395F695879577956795B795F111F8CFFAF4BB0F11F460FF70
:202640001BC06F5F7F4F8F4F9F4F16C0882311F096E911C0772321F09EE8872F762F05C014
:20266000662371F096E8862F70E060E02AF09A95660F771F881FDAF7880F9695879597F973
:202680000895990F0008550FAA0BE0E8FEEF16161706E807F907C0F012161306E407F5070F
:2026A00098F0621B730B840B950B39F40A2661F0232B242B252B21F408950A2609F4A1400D
:2026C000A6958FEF811D811D08950E9478130C94E9130E94DB1338F00E94E21320F0952388
:2026E00011F00C94D2130C94D81311240C941D140E94FA1370F3959FC1F3950F50E0551F81
:20270000629FF001729FBB27F00DB11D639FAA27F00DB11DAA1F649F6627B00DA11D661F12
:20272000829F2227B00DA11D621F739FB00DA11D621F839FA00D611D221F749F3327A00D7D
:20274000611D231F849F600D211D822F762F6A2F11249F5750409AF0F1F088234AF0EE0FF4
:20276000FF1FBB1F661F771F881F91505040A9F79E3F510580F00C94D2130C941D145F3FF7
:20278000E4F3983ED4F3869577956795B795F795E7959F5FC1F7FE2B880F911D96958795E3
:2027A00097F9089597F99F6780E870E060E008959FEF80EC089500240A9416161706180601
:2027C0000906089500240A9412161306140605060895092E0394000C11F4882352F0BB0FF2
:2027E00040F4BF2B11F460FF04C06F5F7F4F8F4F9F4F089557FD9058440F551F59F05F3FA4
:2028000071F04795880F97FB991F61F09F3F79F087950895121613061406551FF2CF4695DE
:20282000F1DF08C0161617061806991FF1CF86957105610508940895E894BB276627772768
:20284000CB0197F90895F999FECF92BD81BDF89A992780B50895262FF999FECF1FBA92BD93
:2028600081BD20BD0FB6F894FA9AF99A0FBE019608952F923F924F925F926F927F928F922D
:202880009F92AF92BF92CF92DF92EF92FF920F931F93CF93DF93CDB7DEB7CA1BDB0B0FB6C0
:2028A000F894DEBF0FBECDBF09942A88398848885F846E847D848C849B84AA84B984C884FA
:2028C000DF80EE80FD800C811B81AA81B981CE0FD11D0FB6F894DEBF0FBECDBFED01089583
:2028E000EE0FFF1F0590F491E02D09945058BB27AA270E948E140C94E9130E94DB1338F006
:202900000E94E21320F039F49F3F19F426F40C94D8130EF4E095E7FB0C94D213E92F0E94BB
:20292000FA1358F3BA17620773078407950720F079F4A6F50C941C140EF4E0950B2EBA2FE3
:20294000A02D0B01B90190010C01CA01A0011124FF27591B99F0593F50F4503E68F11A168F
:20296000F040A22F232F342F4427585FF3CF469537952795A795F0405395C9F77EF41F169F
:20298000BA0B620B730B840BBAF09150A1F0FF0FBB1F661F771F881FC2F70EC0BA0F621F61
:2029A000731F841F48F4879577956795B795F7959E3F08F0B0CF9395880F08F09927EE0FE2
:2029C0009795879508950E94F7140C94E9130E94E21358F00E94DB1340F029F45F3F29F056
:2029E0000C94D21351110C941D140C94D8130E94FA1368F39923B1F3552391F3951B550B1E
:202A0000BB27AA2762177307840738F09F5F5F4F220F331F441FAA1FA9F335D00E2E3AF0FB
:202A2000E0E832D091505040E695001CCAF72BD0FE2F29D0660F771F881FBB1F26173707DB
:202A40004807AB07B0E809F0BB0B802DBF01FF2793585F4F3AF09E3F510578F00C94D213A8
:202A60000C941D145F3FE4F3983ED4F3869577956795B795F7959F5FC9F7880F911D96954A
:202A8000879597F90895E1E0660F771F881FBB1F621773078407BA0720F0621B730B840BC7
:202AA000BA0BEE1F88F7E09508950E945C156894B1110C941D1408950E94021488F09F574E
:202AC00098F0B92F9927B751B0F0E1F0660F771F881F991F1AF0BA95C9F714C0B13091F094
:202AE0000E941C14B1E008950C941C14672F782F8827B85F39F0B93FCCF386957795679500
:202B0000B395D9F73EF490958095709561957F4F8F4F9F4F08950F931F93CF93DF93823025
:202B2000910510F482E090E0E0916708F091680830E020E0B0E0A0E0309799F42115310578
:202B400009F44AC0281B390B24303105D8F58A819B816115710589F1FB0193838283FE01ED
:202B600011C0408151810281138148175907E0F04817590799F4109761F012960C93129717
:202B800013961C933296CF01DF91CF911F910F9108950093670810936808F4CF2115310544
:202BA00051F04217530738F0A901DB019A01BD01DF01F801C1CFEF01F9CF90936808809353
:202BC0006708CDCFFE01E20FF31F819391932250310939832883D7CF2091650830916608AA
:202BE000232B41F420912F0330913003309366082093650820912D0330912E0321153105EB
:202C000041F42DB73EB74091310350913203241B350BE0916508F0916608E217F307A0F4B8
:202C20002E1B3F0B2817390778F0AC014E5F5F4F2417350748F04E0F5F1F50936608409364
:202C40006508819391939FCFF0E0E0E09CCFCF93DF930097E9F0FC01329713821282A09102
:202C60006708B0916808ED0130E020E01097A1F420813181820F931F209165083091660817
:202C80002817390709F061C0F0936608E0936508DF91CF910895EA01CE17DF07E8F54A81FF
:202CA0005B819E0141155105B1F7E901FB83EA8349915991C40FD51FEC17FD0761F4808188
:202CC00091810296840F951FE90199838883828193819B838A83F0E0E0E012968D919C912D
:202CE00013970097B9F52D913C911197CD010296820F931F2091650830916608281739073D
:202D000039F6309751F51092680810926708B0936608A0936508BCCFD383C283408151814A
:202D2000840F951FC817D90761F44E5F5F4F88819981480F591F518340838A819B81938317
:202D400082832115310509F0B0CFF0936808E09367089ECFFD01DC01C0CF13821282D7CF0F
:202D6000B0E0A0E0E6EBF6E10C943B148C01009751F4CB010E948B158C01C801CDB7DEB7C6
:202D8000E0E10C945714FC01E60FF71F9C0122503109E217F30708F49DC0D901CD91DC9125
:202DA0001197C617D70798F0C530D10530F3CE0104978617970708F3C61BD70B2297C193CA
:202DC000D1936D937C93CF010E942716D6CF5B01AC1ABD0A4C018C0E9D1EA0916708B091C0
:202DE0006808512C412CF12CE12C109731F580916508909166088815990509F05CC04616C9
:202E0000570608F058C080912D0390912E03009741F48DB79EB74091310350913203841B93
:202E2000950BE817F90708F055C0F0936608E0936508F90171836083A0CF8D919C911197E2
:202E400012966C90129713967C901397A815B90559F56C0142E0C40ED11CCA14DB0420F1E1
:202E6000AC014A195B09DA011296159780F06282738251834083D9016D937C93E114F104FC
:202E800071F0D7011396FC93EE93129776CF22968C0F9D1FF90191838083F301EFCFF093FD
:202EA0006808E093670869CF4816590608F42C017D01D3019ACFCB010E948B157C010097C5
:202EC00049F0AE01B8010E946D17C8010E942716870153CF10E000E050CFFB01DC0102C04F
:202EE00001900D9241505040D8F70895FB01DC0101900D920020E1F7089510E0C2E6D0E02F
:202F000004C0FE010E9470142196C336D107C9F7F894FFCF0400030C000000000000000013
:202F2000030D0000000000C1C081C1400101C3C003800241C201C6C006800741C70005C18F
:202F4000C581C4400401CCC00C800D41CD000FC1CF81CE400E000AC1CA81CB400B01C9C0FD
:202F600009800841C801D8C018801941D9001BC1DB81DA401A001EC1DE81DF401F01DDC0CD
:202F80001D801C41DC0014C1D481D5401501D7C017801641D601D2C012801341D30011C18D
:202FA000D181D0401001F0C030803141F10033C1F381F240320036C1F681F7403701F5C07D
:202FC00035803441F4003CC1FC81FD403D01FFC03F803E41FE01FAC03A803B41FB0039C1FD
:202FE000F981F840380028C1E881E9402901EBC02B802A41EA01EEC02E802F41EF002DC1ED
:20300000ED81EC402C01E4C024802541E50027C1E781E640260022C1E281E3402301E1C08C
:2030200021802041E001A0C060806141A10063C1A381A240620066C1A681A7406701A5C09C
:2030400065806441A4006CC1AC81AD406D01AFC06F806E41AE01AAC06A806B41AB0069C1FC
:20306000A981A840680078C1B881B9407901BBC07B807A41BA01BEC07E807F41BF007DC1CC
:20308000BD81BC407C01B4C074807541B50077C1B781B640760072C1B281B3407301B1C08C
:2030A00071807041B00050C190819140510193C053805241920196C056805741970055C1BC
:2030C0009581944054019CC05C805D419D005FC19F819E405E005AC19A819B405B0199C0FC
:2030E00059805841980188C04880494189004BC18B818A404A004EC18E818F404F018DC0EC
:203100004D804C418C0044C184818540450187C047804641860182C042804341830041C18B
:20312000818180404001020202020202020101010101010101050000081600E8081611BD7F
:203140001B000069088000304050000000007102D101FE01BE022F020D022102000000003C
:20316000F702D1018A03F60253036903DE025374617274696E6720746F20536574204669F3
:203180006C746572210D0A00456E74657220436F6E66696775726174696F6E204D6F646525
:2031A000204661696C7572652E2E2E0D0A00456E746572696E672050726576696F757320AD
:2031C0004D6F6465204661696C7572652E2E2E0D0A53657474696E672046696C746572205D
:2031E0004661696C7572652E2E2E0D0A0053657474696E672046696C746572205375636354
:2032000065737366756C6C210D0A005374617274696E6720746F20536574204D61736B2110
:203220000D0A00456E746572696E6720436F6E66696775726174696F6E204D6F64652046B8
:2032400061696C7572652E2E2E0D0A00456E746572696E672050726576696F7573204D6FB6
:203260006465204661696C7572652E2E2E0D0A53657474696E67204D61736B204661696CD6
:203280007572652E2E2E0D0A0053657474696E67204D61736B205375636365737366756C77
:2032A000210D0A0051554555453A20696E73756666696369656E74206669786564206172CD
:2032C0007261792073697A6520746F2070757368206D6F72652E0051554555453A20636140
:2032E0006E277420706F70206974656D2066726F6D2066697865642061727261793A207179
:203300007565756520697320656D7074792E00456E746572696E6720436F6E6669677572E7
:203320006174696F6E204D6F6465205375636365737366756C210D0A0053657474696E6777
:20334000204261756472617465205375636365737366756C210D0A0052657475726E696E56
:203360006720746F2050726576696F7573204D6F6465204661696C7572652E2E2E0D0A0038
:203380006974656D2066726F6D2066697865642061727261793A20717565756520697320A0
:2033A000656D7074792E00456E746572696E6720436F6E66696775726174696F6E204D6F20
:2033C0006465205375636365737366756C210D0A0053657474696E672042617564726174EB
:2033E00065205375636365737366756C210D0A0052657475726E696E6720746F20507265E8
:2034000076696F7573204D6F6465204661696C7572652E2E2E0D0A00FFFFFFFFFFFFFFFF50
:20342000FFFFFFFFFFFFFFFFFFFFFFFFFFFFFFFFFFFFFFFFFFFFFFFFFFFFFFFFFFFFFFFFAC
:20344000FFFFFFFFFFFFFFFFFFFFFFFFFFFFFFFFFFFFFFFFFFFFFFFFFFFFFFFFFFFFFFFF8C
:20346000FFFFFFFFFFFFFFFFFFFFFFFFFFFFFFFFFFFFFFFFFFFFFFFFFFFFFFFFFFFFFFFF6C
:2034800074696E672046696C746572205375636365737366756C6C210D0A00537461727402
:2034A000696E6720746F20536574204D61736B210D0A00456E746572696E6720436F6E66B9
:2034C000696775726174696F6E204D6F6465204661696C7572652E2E2E0D0A00456E746560
:2034E00072696E672050726576696F7573204D6F6465204661696C7572652E2E2E0D0A531E
:20350000657474696E67204D61736B204661696C7572652E2E2E0D0A0053657474696E670D
:20352000204D61736B205375636365737366756C210D0A006E616E00696E66006F766600A2
:2035400051554555453A20696E73756666696369656E7420666978656420617272617920F6
:2035600073697A6520746F2070757368206D6F72652E002D53656E64325365727665724507
:203580006C4D657465724461746128292D004F70656E205573657231203D200057683A20B2
:2035A00000506F7765723A20003B20313D200020323D200020333D2000566F6C746167658A
:2035C0003A200051554555453A2063616E277420706F70206974656D2066726F6D206669E4
:2035E0007865642061727261793A20717565756520697320656D7074792E00456E74657255
:20360000696E6720436F6E66696775726174696F6E204D6F6465205375636365737366757B
:203620006C210D0A0053657474696E67204261756472617465205375636365737366756C80
:20364000210D0A0052657475726E696E6720746F2050726576696F7573204D6F64652046E9
:2036600061696C7572652E2E2E0D0A00FFFFFFFFFFFFFFFFFFFFFFFFFFFFFFFFFFFFFFFF3B
:203680006C7572652E2E2E0D0A00FFFFFFFFFFFFFFFFFFFFFFFFFFFFFFFFFFFFFFFFFFFFE7
:2036A000FFFFFFFFFFFFFFFFFFFFFFFFFFFFFFFFFFFFFFFFFFFFFFFFFFFFFFFFFFFFFFFF2A
:2036C000FFFFFFFFFFFFFFFFFFFFFFFFFFFFFFFFFFFFFFFFFFFFFFFFFFFFFFFFFFFFFFFF0A
:2036E000FFFFFFFFFFFFFFFFFFFFFFFFFFFFFFFFFFFFFFFFFFFFFFFFFFFFFFFFFFFFFFFFEA
:203700000121030701B301380116012A0151554555453A20696E73756666696369656E7467
:203720002066697865642061727261792073697A6520746F2070757368206D6F72652E005B
:20374000424F494C455200464C4F4F52494E00464C4F4F524F555400484F4D450051554505
:2037600055453A2063616E277420706F70206974656D2066726F6D20666978656420617253
:203780007261793A20717565756520697320656D7074792E00456E746572696E6720436FD7
:2037A0006E66696775726174696F6E204D6F6465204661696C7572652E2E2E0D0A00456E82
:2037C000746572696E6720436F6E66696775726174696F6E204D6F646520537563636573BD
:2037E0007366756C210D0A0053657474696E672042617564726174652053756363657373B8
:2038000066756C210D0A0052657475726E696E6720746F2050726576696F7573204D6F64AB
:2038200065204661696C7572652E2E2E0D0A005374617274696E6720746F20536574204D92
:2038400061736B210D0A00456E746572696E672050726576696F7573204D6F6465204661CC
:20386000696C7572652E2E2E0D0A53657474696E67204D61736B204661696C7572652E2EB8
:203880002E0D0A0053657474696E67204D61736B205375636365737366756C210D0A00538E
:2038A00074617274696E6720746F205365742046696C746572210D0A00456E7465722043A1
:2038C0006F6E66696775726174696F6E204D6F6465204661696C7572652E2E2E0D0A004560
:2038E0006E746572696E672050726576696F7573204D6F6465204661696C7572652E2E2E3D
:203900000D0A53657474696E672046696C746572204661696C7572652E2E2E0D0A005365EB
:203920007474696E672046696C746572205375636365737366756C6C210D0A00FFFFFFFFFB
:20394000FFFFFFFFFFFFFFFFFFFFFFFFFFFFFFFFFFFFFFFFFFFFFFFFFFFFFFFFFFFFFFFF87
:20396000FFFFFFFFFFFFFFFFFFFFFFFFFFFFFFFFFFFFFFFFFFFFFFFFFFFFFFFFFFFFFFFF67
:20398000A909A093A809BCCFD383C28340815181840F951FC817D90761F44E5F5F4F888119
:2039A0009981480F591F518340838A819B81938382832115310509F0B0CFF093AB09E093B7
:2039C000AA099ECFFD01DC01C0CF13821282D7CFB0E0A0E0EEEEFCE10C942F1A8C010097B8
:2039E00051F4CB010E94C31B8C01C801CDB7DEB7E0E10C944B1AFC01E60FF71F9C012250EA
:203A00003109E217F30708F49DC0D901CD91DC911197C617D70798F0C530D10530F3CE01D3
:203A200004978617970708F3C61BD70B2297C193D1936D937C93CF010E945F1CD6CF5B0184
:203A4000AC1ABD0A4C018C0E9D1EA091AA09B091AB09512C412CF12CE12C109731F580916C
:203A6000A8099091A9098815990509F05CC04616570608F058C080911B0190911C010097A7
:203A800041F48DB79EB740911F0150912001841B950BE817F90708F055C0F093A909E09372
:203AA000A809F90171836083A0CF8D919C91119712966C90129713967C901397A815B905FB
:203AC00059F56C0142E0C40ED11CCA14DB0420F1AC014A195B09DA011296159780F0628285
:203AE000738251834083D9016D937C93E114F10471F0D7011396FC93EE93129776CF2296CF
:203B00008C0F9D1FF90191838083F301EFCFF093AB09E093AA0969CF4816590608F42C0110
:203B20007D01D3019ACFCB010E94C31B7C01009749F0AE01B8010E94A51DC8010E945F1C7F
:203B4000870153CF10E000E050CFFB01DC0102C001900D9241505040D8F70895FB01DC019B
:203B600001900D920020E1F7089510E0C2E6D0E004C0FE010E94A51A2196C336D107C9F7CC
:203B8000F894FFCF010202020202020201010101010101010400050000081600081611005E
:203BA00000AC0980000000C1C081C1400101C3C003800241C201C6C006800741C70005C1DE
:203BC000C581C4400401CCC00C800D41CD000FC1CF81CE400E000AC1CA81CB400B01C9C071
:203BE00009800841C801D8C018801941D9001BC1DB81DA401A001EC1DE81DF401F01DDC041
:203C00001D801C41DC0014C1D481D5401501D7C017801641D601D2C012801341D30011C100
:203C2000D181D0401001F0C030803141F10033C1F381F240320036C1F681F7403701F5C0F0
:203C400035803441F4003CC1FC81FD403D01FFC03F803E41FE01FAC03A803B41FB0039C170
:203C6000F981F840380028C1E881E9402901EBC02B802A41EA01EEC02E802F41EF002DC160
:203C8000ED81EC402C01E4C024802541E50027C1E781E640260022C1E281E3402301E1C000
:203CA00021802041E001A0C060806141A10063C1A381A240620066C1A681A7406701A5C010
:203CC00065806441A4006CC1AC81AD406D01AFC06F806E41AE01AAC06A806B41AB0069C170
:203CE000A981A840680078C1B881B9407901BBC07B807A41BA01BEC07E807F41BF007DC140
:203D0000BD81BC407C01B4C074807541B50077C1B781B640760072C1B281B3407301B1C0FF
:203D200071807041B00050C190819140510193C053805241920196C056805741970055C12F
:203D40009581944054019CC05C805D419D005FC19F819E405E005AC19A819B405B0199C06F
:203D600059805841980188C04880494189004BC18B818A404A004EC18E818F404F018DC05F
:203D80004D804C418C0044C184818540450187C047804641860182C042804341830041C1FF
:203DA00081818040400000000020045A022F061F04750496040404000000008B035A02BD67
:203DC00002D503F002CE02E2026E616E00696E66006F7666005374617274696E6720746F4F
:203DE000205365742046696C746572210D0A00456E74657220436F6E666967757261746920
:203E00006F6E204D6F6465204661696C7572652E2E2E0D0A00456E746572696E6720507279
:203E20006576696F7573204D6F6465204661696C7572652E2E2E0D0A53657474696E6720BB
:203E400046696C746572204661696C7572652E2E2E0D0A0053657474696E672046696C74E6
:203E60006572205375636365737366756C6C210D0A005374617274696E6720746F20536560
:203E800074204D61736B210D0A00456E746572696E6720436F6E66696775726174696F6E16
:203EA000204D6F6465204661696C7572652E2E2E0D0A00456E746572696E672050726576DB
:203EC000696F7573204D6F6465204661696C7572652E2E2E0D0A53657474696E67204D6148
:203EE000736B204661696C7572652E2E2E0D0A0053657474696E67204D61736B2053756386
:203F00006365737366756C210D0A00456E746572696E6720436F6E66696775726174696F2E
:203F20006E204D6F6465205375636365737366756C210D0A0053657474696E6720426175E0
:203F40006472617465204661696C7572652E2E2E0D0A0053657474696E67204261756472DC
:203F6000617465205375636365737366756C210D0A006053657474696E67204944204D6FC8
:203F80006465204661696C7572652E2E2E0D0A0052657475726E696E6720746F20507265C7
:203FA00076696F7573204D6F6465204661696C7572652E2E2E0D0A002A2A2A7365747570EE
:203FC0002073746172742A2A2A004572726F7220496E697469616C697A696E672043414E0E
:203FE0002062757320647269766572204D4350323531352E2E2E002A2A2A73657475702085
:20400000656E642A2A2A0021205761726E696E673A20726563656976656420756E6E6565F8
:204020006465642043414E206D6573736167653A205650494E3D0020466C6F617456616C4F
:2040400075653D0045786563513A200053656E64204845583A2020005265636569766564E9
:204060003A202000202D2000203A2000203C2000513A2072657475726E202D323B2F2F639D
:204080007263206572726F7200513A2072657475726E202D313B2F2F696E636F727265634A
:2040A00074206C656E67746800513A2072657475726E20303B2F2F6E6F20616E737765613A
:2040C00072006C6F6F702829005465737420636F6E6E656374696F6E3A20004C6F67696E20
:2040E0002075736572313A20004765742074696D653A20002D003A0057683A2000203D2010
:20410000005768313A20005768323A2000506F7765723A20003B20313D200020323D20000B
:2041200020333D2000566F6C746167653A200000FFFFFFFFFFFFFFFFFFFFFFFFFFFFFFFFB3
:20414000FFFFFFFFFFFFFFFFFFFFFFFFFFFFFFFFFFFFFFFFFFFFFFFFFFFFFFFFFFFFFFFF7F
:20416000FFFFFFFFFFFFFFFFFFFFFFFFFFFFFFFFFFFFFFFFFFFFFFFFFFFFFFFFFFFFFFFF5F
:20418000FFFFFFFFFFFFFFFFFFFFFFFFFFFFFFFFFFFFFFFFFFFFFFFFFFFFFFFFFFFFFFFF3F
:2041A000FFFFFFFFFFFFFFFFFFFFFFFFFFFFFFFFFFFFFFFFFFFFFFFFFFFFFFFFFFFFFFFF1F
:207800000C94343C0C94513C0C94513C0C94513C0C94513C0C94513C0C94513C0C94513C1D
:207820000C94513C0C94513C0C94513C0C94513C0C94513C0C94513C0C94513C0C94513CE0
:207840000C94513C0C94513C0C94513C0C94513C0C94513C0C94513C0C94513C0C94513CC0
:207860000C94513C0C94513C11241FBECFEFD8E0DEBFCDBF11E0A0E0B1E0ECE9FFE702C07E
:2078800005900D92A230B107D9F712E0A2E0B1E001C01D92AD30B107E1F70E942D3D0C94CC
:2078A000CC3F0C94003C982F9595959595959595905D8F708A307CF0282F295A8091C000B5
:2078C00085FFFCCF9093C6008091C00085FFFCCF2093C6000895282F205DF0CF982F8091CF
:2078E000C00085FFFCCF9093C6000895EF92FF920F931F93EE24FF2487018091C00087FD7B
:2079000017C00894E11CF11C011D111D81E4E81682E4F8068FE0080780E0180770F3E09106
:207920000401F091050109958091C00087FFE9CF8091C6001F910F91FF90EF9008950E949A
:20794000763C982F8091C00085FFFCCF9093C60091362CF490330CF09053892F08959755DB
:20796000892F08951F930E949F3C182F0E949F3C1295107F810F1F9108951F93182F882308
:2079800021F00E94763C1150E1F71F9108951F93182F0E94763C803249F0809103018F5FC1
:2079A000809303018530C1F01F9108958091C00085FFFCCF84E18093C6008091C00085FF4A
:2079C000FCCF1093C6008091C00085FFFCCF80E18093C6001F910895E0910401F0910501CF
:2079E00009951F9108950E94763C803241F0809103018F5F80930301853081F00895809177
:207A0000C00085FFFCCF84E18093C6008091C00085FFFCCF80E18093C6000895E0910401AC
:207A2000F09105010995089540E951E08823A1F02D9A28EE33E0FA013197F1F72150304072
:207A4000D1F72D9828EE33E0FA013197F1F721503040D1F7815061F708953F924F925F92B3
:207A60006F927F928F929F92AF92BF92CF92DF92EF92FF920F931F93CF93DF93000080E1A3
:207A80008093C4001092C50088E18093C10086E08093C2005098589A259A81E00E94143D43
:207AA00024E1F22E9EE1E92E85E9D82E0FE0C02E10E1B12EAA24A394B1E49B2EA6E58A2E44
:207AC000F2E57F2EE0E26E2E79E4572E63E5462E50E5352E0E94763C8033B1F18133B9F187
:207AE000803409F46FC0813409F476C0823409F485C0853409F488C0803531F1823521F128
:207B0000813511F1853509F485C0863509F48DC0843609F496C0843709F403C1853709F46A
:207B200072C1863709F466C0809103018F5F80930301853079F6E0910401F0910501099559
:207B40000E94763C803351F60E94F33CC3CF0E94763C803249F78091C00085FFFCCFF0928C
:207B6000C6008091C00085FFFCCF9092C6008091C00085FFFCCF8092C6008091C00085FFEA
:207B8000FCCF7092C6008091C00085FFFCCF6092C6008091C00085FFFCCF5092C6008091A1
:207BA000C00085FFFCCF4092C6008091C00085FFFCCF3092C6008091C00085FFFCCFB09214
:207BC000C60088CF0E94763C863808F4BDCF0E94763C0E94F33C7ECF0E94763C803809F473
:207BE0009CC0813809F40BC1823809F43CC1883909F48FC080E00E94C73C6CCF84E10E949F
:207C0000BD3C0E94F33C66CF85E00E94BD3C0E94F33C60CF0E94763C809306010E94763CA3
:207C2000809307010E94F33C55CF0E94763C803309F41DC183E00E94BD3C80E00E94C73C4F
:207C400049CF0E94763C809309020E94763C8093080280910C028E7F80930C020E94763C88
:207C6000853409F415C18091080290910902892B89F000E010E00E94763CF801E85FFE4F53
:207C800080830F5F1F4F80910802909109020817190788F30E94763C803209F045CF8091E0
:207CA0000C0280FF01C16091060170910701660F771F7093070160930601A0910802B091E8
:207CC00009021097C9F0E8E0F1E09B01AD014E0F5F1FF999FECF32BD21BD819180BDFA9A6C
:207CE000F99A2F5F3F4FE417F50799F76A0F7B1F70930701609306018091C00085FFFCCF16
:207D0000F092C6008091C00085FFFCCFB092C600E1CE83E00E94C73CDDCE82E00E94C73C8A
:207D2000D9CE0E94763C809309020E94763C809308028091060190910701880F991F909306
:207D40000701809306010E94763C853409F4A6C080910C028E7F80930C020E94763C80323E
:207D600009F0B8CE8091C00085FFFCCFF092C600609108027091090261157105B9F140E05F
:207D800050E080910C02A82FA170B82FB27011C0BB2309F45CC0E0910601F0910701319613
:207DA000F0930701E09306014F5F5F4F46175707E8F4AA2369F3F999FECF209106013091CA
:207DC000070132BD21BDF89A90B58091C00085FFFCCF9093C6002F5F3F4F30930701209354
:207DE00006014F5F5F4F4617570718F38091C00085FDE5CE8091C00085FFF8CFE0CE81E029
:207E00000E94C73C67CE0E94763C803209F08CCE8091C00085FFFCCFF092C6008091C000F6
:207E200085FFFCCFE092C6008091C00085FFFCCFD092C6008091C00085FFFCCFC092C6003B
:207E40008091C00085FFFCCFB092C60043CEE0910601F091070194918091C00085FFFCCFA3
:207E60009093C6009CCF80E10E94C73C33CE0E94763C0E94763C182F0E94763C112309F433
:207E800083C0113009F484C08FE00E94C73C22CE80910C02816080930C02E5CE80910C0226
:207EA000816080930C0259CF809107018823880F880B8A2180930B0280910601909107019E
:207EC000880F991F90930701809306018091080280FF09C0809108029091090201969093AA
:207EE000090280930802F894F999FECF1127E0910601F0910701C8E0D1E0809108029091A1
:207F00000902103091F40091570001700130D9F303E000935700E895009157000170013067
:207F2000D9F301E100935700E895099019900091570001700130D9F301E000935700E8954C
:207F40001395103498F011270091570001700130D9F305E000935700E8950091570001707A
:207F60000130D9F301E100935700E8953296029709F0C7CF103011F00296E5CF11248091F8
:207F8000C00085FFB9CEBCCE8EE10E94C73CA2CD85E90E94C73C9ECDF894FFCF8000FFFFB3
:207FA000FFFFFFFFFFFFFFFFFFFFFFFFFFFFFFFFFFFFFFFFFFFFFFFFFFFFFFFFFFFFFFFFE1
:207FC000FFFFFFFFFFFFFFFFFFFFFFFFFFFFFFFFFFFFFFFFFFFFFFFFFFFFFFFFFFFFFFFFC1
:207FE000FFFFFFFFFFFFFFFFFFFFFFFFFFFFFFFFFFFFFFFFFFFFFFFFFFFFFFFFFFFFFFFFA1
:00000001FF
