:200000000C9473000C949B000C949B000C949B000C949B000C949B000C949B000C949B0030
:200020000C949B000C949B000C949B000C949B000C949B000C949B000C949B000C949B00E8
:200040000C9443150C949B000C94B3150C948D150C949B000C949B000C949B000C949B00D7
:200060000C949B000C949B00005EBCE2613FDD83C29C7E20A3FD1F41009D23BE46DB65F816
:200080008C11AF32CA57E97400000000240027002A0000000000250028002B00000000086F
:2000A0000002010000030407000000000000000000000000230026002900040404040404A5
:2000C0000404020202020202030303030303010204081020408001020408102001020408AD
:2000E0001020E515891A11241FBECFEFD8E0DEBFCDBF13E0A0E0B1E0E0EBFEE302C005907B
:200100000D92AA39B107D9F726E0AAE9B3E001C01D92AB31B207E1F710E0C2E7D0E004C0BF
:200120002197FE010E94591DC137D107C9F70E94E6160C944B1F0C9400008A309105ACF527
:2001400020910306309104062115310571F1FC01EE0FFF1FEF57FA4F40815181452B29F188
:2001600011821082FC01EB51FA4F1082FC01EE0FFF1FE151FA4F11821082FC01EE0FFF1F76
:20018000EE0FFF1FEB56FA4F1082118212821382880F991FFC01EF52FA4F11821082215000
:2001A0003109309304062093030608958CBD9DBD0895CF92DF92EF92FF920F931F93CF9305
:2001C000DF9328E030E041E06FEF70E09FE0C92ED12CC3E2D0E007ED10E090919204E091F2
:2001E0009304F0919404F92EF094582F542389F1F89452815F2152835181592B5183DE016F
:200200001197F1F75281952B92837894F8013197F1F7440F2150310901F7F894E091930467
:20022000F0919404918180919204809598239183E0919304F0919404928189238283789417
:20024000DF91CF911F910F91FF90EF90DF90CF900895F89452815F2152835181592B518327
:20026000DB011197F1F75281952B92837894F601CECF80919204E0919304F0919404F89476
:200280009181282F20959223918378943DE743E050E0315029F1DA011197F1F79081982322
:2002A000C1F3F8949281922392839181982B91837894ABE7B7E01197F1F7F8949181922320
:2002C0009183A3E1B1E01197F1F79081982381E009F080E07894E3E6F6E03197F1F70895E7
:2002E00080E00895833081F028F4813099F08230A9F008958730A9F08830C9F08430B1F485
:20030000809180008F7D03C0809180008F7780938000089584B58F7784BD089584B58F7D54
:20032000FBCF8091B0008F778093B00008958091B0008F7DF9CFCF93DF93282F30E0F90102
:20034000E456FF4F8491F901E253FF4FD491F901E654FF4FC491CC23A1F081110E94720120
:20036000EC2FF0E0EE0FFF1FE055FF4FA591B491EC91ED2381E090E009F480E0DF91CF91EE
:20038000089580E090E0FACF1F93CF93DF93282F30E0F901E456FF4F8491F901E253FF4F26
:2003A000D491F901E654FF4FC491CC23A9F0162F81110E947201EC2FF0E0EE0FFF1FEE5643
:2003C000FF4FA591B4918FB7F894EC91111108C0D095DE23DC938FBFDF91CF911F910895DB
:2003E000DE2BF8CFCF93DF9390E0FC01E253FF4F249186549F4FFC0184918823C9F090E006
:20040000880F991FFC01E857FF4FA591B491FC01EE56FF4FC591D49161110DC09FB7F8941D
:200420008C91209582238C938881282328839FBFDF91CF910895623051F49FB7F8943C91D6
:20044000822F809583238C93E8812E2BEFCF8FB7F894EC912E2B2C938FBFEACF3FB7F894A1
:200460008091EA039091EB03A091EC03B091ED0326B5A89B05C02F3F19F00196A11DB11DA1
:200480003FBFBA2FA92F982F8827BC01CD01620F711D811D911D42E0660F771F881F991FC5
:2004A0004A95D1F708958F929F92AF92BF92CF92DF92EF92FF924B015C010E942E026B0149
:2004C0007C010E942E026C197D098E099F09683E734081059105A8F321E0821A9108A10894
:2004E000B10888EEC80E83E0D81EE11CF11C81149104A104B10429F7FF90EF90DF90CF9014
:20050000BF90AF909F908F9008952FB7F8946091E6037091E7038091E8039091E9032FBF34
:200520000895CF93DF93E0910306F09104063A9764F4E1E8F5E0D0E0C0E0A191B191AB2BE4
:2005400051F02196CA30D105C1F7CFEFDFEFCE01DF91CF910895FE01EE0FFF1FEE0FFF1F1E
:20056000EB56FA4F6083718382839383FE01EE0FFF1FEF57FA4F51834083FE01EE0FFF1FA5
:20058000E354FA4F3183208381E0FE01EB51FA4F80830E948502FE01EE0FFF1FEE0FFF1F3E
:2005A000E75AFA4F6083718382839383809103069091040601969093040680930306C7CF04
:2005C000AF92BF92CF92DF92EF92FF920F931F93CF93DF936C017B018B01040F151FEB01D5
:2005E0005E01AE18BF08C017D10759F06991D601ED91FC910190F081E02DC6010995892B13
:2006000079F7C501DF91CF911F910F91FF90EF90DF90CF90BF90AF900895FC01538D448DCF
:20062000252F30E0842F90E0821B930B541710F0CF96089501970895FC01918D828D98177D
:2006400061F0A28DAE0FBF2FB11D5D968C91928D9F5F9F73928F90E008958FEF9FEF08958B
:20066000FC01918D828D981731F0828DE80FF11D858D90E008958FEF9FEF0895FC01918D89
:20068000228D892F90E0805C9F4F821B91098F739927089582EF93E00E943E0321E0892BA7
:2006A00009F420E0822F089580E090E0892B29F00E944A0381110C9400000895FC01A48D66
:2006C000A80FB92FB11DA35ABF4F2C91848D90E001968F739927848FA689B7892C93A089A1
:2006E000B1898C91837080648C93938D848D981306C00288F389E02D80818F7D808308954B
:20070000EF92FF920F931F93CF93DF93EC0181E0888F9B8D8C8D98131AC0E889F989808180
:2007200085FF15C09FB7F894EE89FF896083E889F98980818370806480839FBF81E090E09F
:20074000DF91CF911F910F91FF90EF900895F62E0B8D10E00F5F1F4F0F731127E02E8C8D65
:200760008E110CC00FB607FCFACFE889F989808185FFF5CFCE010E945E03F1CFEB8DEC0F3C
:20078000FD2FF11DE35AFF4FF0829FB7F8940B8FEA89FB8980818062CFCFCF93DF93EC016D
:2007A000888D8823B9F0AA89BB89E889F9898C9185FD03C0808186FD0DC00FB607FCF7CF25
:2007C0008C9185FFF2CF808185FFEDCFCE010E945E03E9CFDF91CF910895CF92DF92EF922C
:2007E000FF920F931F93CF93DF93EC017A016901E881F9810190F081E02D0995E881F981FB
:200800000084F185E02D9801A601B701CE01DF91CF911F910F91FF90EF90DF90CF90099471
:200820006F927F928F929F92AF92BF92CF92DF92EF92FF920F931F93CF93DF93CDB7DEB79D
:20084000AC970FB6F894DEBF0FBECDBFDC011696ED91FC91319609F48BC059013A016B016A
:200860008C01FE0131964F0188E2DF011D928A95E9F7D801ED91FC910488F589E02DB4012D
:20088000C80109957C01892B09F05CC01AA619A61CA61BA6D801ED91FC910688F789E02DAA
:2008A0009E01255D3F4FAE01475D5F4FB401C80109957C01892B09F045C0A114B10439F0AA
:2008C00088E2F401D50101900D928A95E1F7C114D10409F189A59AA521E030E097FF02C042
:2008E0002FEF3FEF9F77829FB001839F700D929F700D1124072E000C880B990B0E94CD1B40
:2009000020E030E040E251E40E94CC1DF601608371838283938361147104A1F06BA57CA550
:20092000072E000C880B990B0E94CD1B20E030E040E251E40E94CC1DD3016D937D938D93BF
:200940009C931397C701AC960FB6F894DEBF0FBECDBFDF91CF911F910F91FF90EF90DF90D0
:20096000CF90BF90AF909F908F907F906F90089587E1E82EF12CE6CF8F929F92AF92BF925D
:20098000CF92DF92EF92FF920F931F93CF93DF93EC018B016A017901E881F9810288F38904
:2009A000E02D0995B82EB801685F7F4FE881F9810288F389E02DCE010995982EB801605FB7
:2009C0007F4FE881F9810288F389E02DCE010995A82EB801685E7F4FE881F9810288F389DA
:2009E000E02DCE010995882EB801605E7F4FE881F9810288F389E02DCE0109959B2D990DB1
:200A00009A0D980D891319C09A2D882DF601918380839B2D892DF7019183808390E080E02E
:200A2000DF91CF911F910F91FF90EF90DF90CF90BF90AF909F908F90089585E190E0F0CFAC
:200A400047E050E080E0FB012191BF01042E01C0220F0A94EAF7820F41505109A0F708951E
:200A60003F924F925F926F927F928F929F92AF92BF92CF92DF92EF92FF920F931F93CF9343
:200A8000DF93EC01162F7A0169010E942E024B015C01312C111139843601660C771C660C68
:200AA000771C85E0681A71082701440C551C440C551C85E0481A510810E000E060E070E019
:200AC000CB012A813B814C815D8126173707480759070CF10115110599F582E0E816F10402
:200AE0001CF0C2010197F1F70E942E02681979098A099B09EA85F0E0EE0FFF1FE055FF4FBE
:200B0000A591B4912C910F5F1F4F39852323231105C097FFD6CF6FEF7FEFCB01DF91CF9121
:200B20001F910F91FF90EF90DF90CF90BF90AF909F908F907F906F905F904F903F90089565
:200B400082E0C816D10484F2C301CCCFFC01828590E00895FC01818590E00895CF92DF92B8
:200B6000EF92FF920F931F93CF93DF93EC017A016901E881F9810190F081E02D0995E88170
:200B8000F9810480F581E02D9801A601B701CE01DF91CF911F910F91FF90EF90DF90CF9011
:200BA0000994CF92DF92EF92FF920F931F93CF93DF93CDB7DEB728970FB6F894DEBF0FBEF9
:200BC000CDBFDC011696ED91FC91319609F440C08A017B0119821A821B821C821D821E8279
:200BE0001F821886DC01ED91FC910084F185E02DAE014B5F5F4FBE016F5F7F4F09956C015A
:200C0000892BB1F4E114F10441F069817A818B819C810E943E1EF70160830115110541F01C
:200C20006D817E818F8198850E943E1ED8016C93C60128960FB6F894DEBF0FBECDBFDF9188
:200C4000CF911F910F91FF90EF90DF90CF90089587E1C82ED12CECCF262F2D7F29F4FC013A
:200C6000608790E080E0089588E190E00895DC0117967C936E931697FB01E253FF4FE4916F
:200C80001996EC93199766547F4FFB0164911A966C93089520E030E040E751E460911A0139
:200CA00070911B0180911C0190911D010E94C61B87FF0CC080E090E0A0E7B1E480931A01BB
:200CC00090931B01A0931C01B0931D0120E030E040E052E460911A0170911B0180911C0167
:200CE00090911D010E94741E181664F480E090E0A0E0B2E480931A0190931B01A0931C0158
:200D0000B0931D0120E030E040E951E460910A0170910B0180910C0190910D010E94C61B2B
:200D200087FF0CC080E090E0A0E9B1E480930A0190930B01A0930C01B0930D0120E030E085
:200D400046E653E460910A0170910B0180910C0190910D010E94741E181664F480E090E050
:200D6000A6E6B3E480930A0190930B01A0930C01B0930D01089560E080E10E94C40160E08D
:200D800081E10E94C40180910801909109018F3F980741F00E949D008FEF9FEF909309012F
:200DA000809308018091CA039091CB038230910539F481E090E09093CB038093CA03089596
:200DC000039721F41092CB031092CA03089580910801909109018F3F980741F00E949D00C6
:200DE0008FEF9FEF909309018093080180910E0190910F018F3F980741F00E949D008FEFF2
:200E00009FEF90930F0180930E0160E081E10E94C40164E170E080E090E00E94530261E049
:200E200080E10E94C40182E090E09093CB038093CA0321E030E04BEB56E068E97AE380E0BC
:200E400090E00E949102909309018093080108951092B8031092B703809108019091090109
:200E60008F3F980741F00E949D008FEF9FEF909309018093080180910E0190910F018F3F21
:200E8000980741F00E949D008FEF9FEF90930F0180930E0160E080E10E94C40164E170E045
:200EA00080E090E00E94530261E081E10E94C40183E090E09093CB038093CA0321E030E0AC
:200EC0004BEB56E068E97AE380E090E00E94910290930901809308010895809110019091CA
:200EE0001101019791F00E9439018CEC0E94D90084E40E94D90021E030E04EEB5DE068EE38
:200F000073E080E090E00C94910208951092A4031092A3030895CF93C42F20E030E040E229
:200F200051E40E942C1CC13031F020E030E040E251E40E942C1C20E030E040E05FE30E941B
:200F4000601D0E943E1E0E94CD1B20E030E040E251E40E94CC1DC13031F020E030E040E256
:200F600051E40E94CC1DCF91089508958EBD00000DB407FEFDCF8EB508951F93CF93DF93D4
:200F8000182F80E591E00E94D600C5E0D6E060E088890E94C40183E00E94B607812F0E9495
:200FA000B60780E00E94B607182F61E088890E94C401812FDF91CF911F910895FF920F93B5
:200FC0001F93CF93DF93F82E062F142F80E591E00E94D600C5E0D6E060E088890E94C4018C
:200FE00085E00E94B6078F2D0E94B607802F0E94B607812F0E94B60761E08889DF91CF91D3
:201000001F910F91FF900C94C401CF93C82F482F60EE8FE00E94DE078FE00E94BD07982FDC
:20102000907E81E09C1301C080E0CF910895FF920F931F93CF93DF93C82FF62E172F042F27
:2010400080E591E00E94D60060E0809115060E94C40182E00E94B6078C2F0E94B607CF2D98
:20106000D12F0C0F1D2F111DC017D10721F089910E94B607F9CF61E080911506DF91CF919D
:201080001F910F91FF900C94C401CF93DF9300D000D0CDB7DEB79A01442755271C821B82C2
:2010A000922F6130E1F493709860622F660F660F660F607E962B9A8345E0369527954A95D7
:2010C000E1F7298344E0BE016F5F7F4F0E9417080F900F900F900F90DF91CF91089592953C
:2010E000990F907E9A8393E0369527959A95E1F7E8CF0F931F93CF93DF93082F162F80E55C
:2011000091E00E94D600C5E0D6E060E088890E94C40182E00E94B607802F0E94B607812F54
:201120000E94B60761E08889DF91CF911F910F910C94C4014F925F926F928F929F92AF9213
:20114000BF92CF92DF92FF920F931F93CF93DF9300D000D0CDB7DEB7B12CA12C409034014B
:2011600050903501609036014E0184E0880E911C49825A826B82FE0131966F01FE2E0D2D0C
:20118000F60111916F01812F0E94BD0783FD0DC01F5F80E0FFEFAF1ABF0A823061F482E319
:2011A000A816B10429F796E072C0C814D90441F710E082E0EFCF92E3A916B104A1F34091A5
:2011C0000A066BE076E085E0810F0E94170880911306813029F480910A06806480930A0688
:2011E00060910A0684E0810F0E9479084091060650910706609108067091090680910506E1
:20120000813099F54C835B83AB0166277727842F83708860942F990F990F990F907E892B00
:201220008A8365E0569547956A95E1F7498344E06F2D702F812F0E941708115048E068E051
:20124000812F0E94DE07D12CC12CEFEFCE1ADE0A812F0E94BD07982F987083FF14C0F2E3AF
:20126000CF16D10491F797E012C0CA0123E0969587952A95E1F789834295440F407E4A8376
:201280001C821B82D4CF82E3C816D10461F3892F0F900F900F900F90DF91CF911F910F91B0
:2012A000FF90DF90CF90BF90AF909F908F906F905F904F900895FF920F931F93CF93DF93D2
:2012C000C82FF62E172F042F80E591E00E94D60060E0809115060E94C40183E00E94B60797
:2012E0008C2F0E94B607CF2DD12F0C0F1D2F111DC017D10729F080E00E94B6078993F8CFD9
:2013000061E080911506DF91CF911F910F91FF900C94C4010F931F93CF93DF9300D000D084
:20132000CDB7DEB7182F109205061092060610920706109208061092090644E0BE016F5F31
:201340007F4F0E945B092A81898138E0839FC0011124422F50E065E0559547956A95E1F751
:20136000840F951F092E000CAA0BBB0B8093060690930706A0930806B093090623FF29C07B
:2013800032E0880F991FAA1FBB1F3A95D1F72370820F911DA11DB11DBA2FA92F982F88271D
:2013A0002B81820F911DA11DB11DBA2FA92F982F88272C81820F911DA11DB11D80930606E8
:2013C00090930706A0930806B093090681E0809305068FEF810F0E94BD07082F84E0810F2C
:2013E0000E94BD0703FF16C091E090931306482F4F7040930A066BE076E085E0810F0E94B1
:201400005B090F900F900F900F90DF91CF911F910F91089510921306EACFCF93DF93109245
:20142000BE031092BD0361E08AE00E94C40180E591E00E94D60060E082E10E94C40161E0DE
:2014400070E080E090E00E94530280E00E94B607C82F80E00E94B607DC2FC82F61E082E15A
:201460000E94C40160E08AE00E94C40161E070E080E090E00E945302C2FD5AC083E0D695F5
:20148000C7958A95E1F7BE0190E080E00E94CB1B20E030E040E85EE30E942C1C6093B903D0
:2014A0007093BA038093BB039093BC0320E030E040E252EC0E94C61B87FF12C081E090E09D
:2014C0009093BE038093BD0380E090E0A0E2B2EC8093B9039093BA03A093BB03B093BC03C3
:2014E00020E030E04AEF53E46091B9037091BA038091BB039091BC030E94741E1816ACF450
:201500008091BD039091BE0301969093BE038093BD0380E090E0AAEFB3E48093B9039093D8
:20152000BA03A093BB03B093BC03DF91CF91089560E070E080EC9FE7B1CFFB0101900020DF
:20154000E9F73197AF01461B570BDC01ED91FC910280F381E02D0994BC0182EF93E00C94A7
:201560009D0ACF93DF93C82F81E891E00E94AC0A80E80E940508D82F8BE991E0D1113DC0E5
:2015800020E030E040E051E060E080E1C33041F1B8F420E030E040E051E060E084E0C13082
:2015A000F9F020E030E040E051E060E088E0C230B9F020E030E040E051E060E080E010C0CD
:2015C00020E030E040E051E060E084E1C43041F020E030E040E051E060E088E1C53049F7A1
:2015E0000E944508809116060E940508D82F81EC91E0D11102C080E092E00E94AC0A8D2FB1
:20160000DF91CF910895CF93DF93D82F8EE192E00E94AC0A80E80E940508C82F86E392E060
:20162000C11115C020E030E04FEF51E060E080E2D11184E20E944508809116060E940508CF
:20164000C82F8FE592E0C11102C08CE992E00E94AC0A8C2FDF91CF910895EC01009739F005
:201660000E949D0A63E372E0CE010E949D0A61E08DE00E94F20161E08DE00E94C4016AEFC0
:2016800070E080E090E00E94530260E08DE00E94C4016AEF70E080E090E00E945302EBCFF5
:2016A0000E94361FFC0180819181009711F00C943D1B0895EF92FF920F931F93CF93DF93BC
:2016C000EC017B018A0188819981009729F02A813B812417350788F4B8016F5F7F4F0E94F2
:2016E000791E009791F0998388831B830A832C813D81232B11F4FC0110821D830C83B701B5
:20170000888199810E94441F0CC088819981009711F00E943D1B198218821D821C821B8211
:201720001A82CE01DF91CF911F910F91FF90EF9008950F931F93CF93DF93CDB7DEB761973A
:201740000FB6F894DEBF0FBECDBF20915705309158052A3031050CF06AC021E030E030938D
:20176000F1032093F003FE0135969DE0DF011D929A95E9F702E210E020E030E009831A83DD
:201780002B833C838D834F83588769877A871C861B861E861D86188A1F8650E040E065E3C1
:2017A00072E0CE010B960E945A0B20915705309158052A30310541F467EB72E08091550561
:2017C000909156050E942D0B81E1829FD001839FB00D1124A555BB4FFE01319601900D9251
:2017E0008A95E1F78091570590915805019690935805809357058091EE039091EF03892BB8
:2018000071F421E030E045E953E16AE070E080E090E00E9491029093EF038093EE03109296
:20182000F1031092F003CE010B960E94520B61960FB6F894DEBF0FBECDBFDF91CF911F91F2
:201840000F9108950F931F93CF93DF930E944A060E9485020091C1031091C2032091C303D6
:201860003091C403601B710B820B930B613177428105910508F469C00E9485026093C10352
:201880007093C2038093C3039093C403C091BF03D091C003BE010D2E000C880B990B0E94A7
:2018A000CD1BAB01BC018CE40E94990B60E070E0CB011C161D0644F46091D0037091D1039F
:2018C0008091D2039091D30341E00E948B07AB01BC018BE30E94990B6091CA037091CB032C
:2018E000072E000C880B990B0E94CD1BAB01BC018DE40E94990B6091D4037091D503072EF0
:20190000000C880B990B0E94CD1BAB01BC018FE40E94990B0E94850228EE33E040E050E036
:201920000E94301DCA01B9010E94CB1B20E030E040E05FE30E94601D0E943E1E0E94CD1B92
:20194000AB01BC018AE50E94990B84E00E949B011092D5031092D4038091D6039091D703EF
:201960008230910509F478C00CF597FF3AC08091BF039091C003892B09F0F8C08091B70372
:201980009091B803892B09F0F1C060E085E00E94C4011092CC031092CD031092CE03109209
:2019A000CF03DF91CF911F910F9108958430910509F48DC00CF474C00597C9F68091CA0397
:2019C0009091CB039C01215031092230310508F09FC08130910559F69093C0038093BF03A0
:2019E00071C01092C0031092BF038091CA039091CB03009719F2039709F28091BD039091F7
:201A0000BE03892BA9F083E090E09093CB038093CA0321E030E048E257E060E27EE480E09E
:201A200090E00E94910290930F0180930E019FCF20E030E048E452E46091B9037091BA0361
:201A40008091BB039091BC030E94741E18160CF495CF0E9428078BCF1092C0031092BF031D
:201A60008091CA039091CB0301970297B0F420E030E048E452E46091B9037091BA038091D6
:201A8000BB039091BC030E94741E18160CF476CF1092B8031092B7036ACF0E94E70667CF4A
:201AA0001092C0031092BF038091CA039091CB039C01215031092230310578F7813091050A
:201AC00009F05CCF9093B8038093B70350CF8091CA039091CB039C0121503109223031057B
:201AE000E0F68130910509F042CF2091BF033091C003232B21F49093B6038093B50382E05C
:201B000090E09093C0038093BF0381E090E0DACF0E94E7068091BD039091BE03892BE9F44D
:201B200020E030E040E252E46091B9037091BA038091BB039091BC030E94C61B87FF0DC04D
:201B400080E090E0A0E8BFE38093D0039093D103A093D203B093D3030ACF1092D00310929D
:201B6000D1031092D2031092D30301CF61E085E0DF91CF911F910F910C94C4016F927F9295
:201B80008F929F92AF92BF92CF92DF92EF92FF920F931F93CF93DF93CDB7DEB76A970FB676
:201BA000F894DEBF0FBECDBF1092B4031092B3031092B2031092B1031092B0031092AF039C
:201BC0001B8A1C8A1D8A1E8A1F8A188E198E1A8E30E020E0AE01495E5F4FBE016D5E7F4F61
:201BE00080EA94E00E941004892B09F47DC08091B3039091B40301969093B4038093B3038A
:201C00008091B1039091B20301969093B2038093B1031E861D86188A1F861A8A198A46E0F8
:201C200050E06AEE72E0CE010D960E945A0B0E9439018CEC0E94D9008EEB0E94D900DE01AF
:201C40001196BE01665F7F4F9D0107E010E043E2E42EF12C5FECC52ED12C48E050E0712C92
:201C60009924939460909204E0919304F0919404F894B180B628B182A280862C8094A8205B
:201C8000A282C8010197F1F7B180B820B182C7010197F1F7B0807894F6013197F1F7862DBD
:201CA0008B2109F07928990C41505109D9F6F90171929F01E617F70781F6398529E0E0E0E9
:201CC000215009F44AC08D918E27E82FEF70F0E0E859FF4F9491E82FE295EF70F0E0E858C2
:201CE000FF4FE491E927ECCF6B897C898D899E896093AB037093AC038093AD039093AE0336
:201D0000CF88D88CE98CFA8CC0920401D0920501E0920601F092070120E030E040E05FE3D9
:201D20000E94601D0E943E1E0E94CD1BAB01BC018DE30E94990B20E030E040E05FE3C701A3
:201D4000B6010E94601D0E943E1E0E94CD1BAB01BC018EE30E94990B5CCF10E03E131EC0BB
:201D60006A81862F90E0982F88276981680F792F711D072E000C880B990B0E94CD1B20E044
:201D800030E040E85DE30E942C1C6093000170930101809302019093030111E0CE010D9648
:201DA0000E94520B111135C08091AF039091B00301969093B0038093AF0320E030E040E014
:201DC0005FE36091B9037091BA038091BB039091BC030E94601D0E943E1E0E94CD1BAB0154
:201DE000BC018FE30E94990B6A960FB6F894DEBF0FBECDBFDF91CF911F910F91FF90EF90F9
:201E0000DF90CF90BF90AF909F908F907F906F900895609100017091010180910201909143
:201E2000030141E00E948B07AB01BC0180E40E94990BC3CF8F929F92AF92BF92CF92DF92EE
:201E4000EF92FF92E090A303F090A403B7010F2C000C880B990B0E94CD1BAB01BC0188E59D
:201E60000E94990B8091B3039091B403892B89F01092D0031092D1031092D2031092D30376
:201E8000FF90EF90DF90CF90BF90AF909F908F900895EA94EF2869F480E090E0A0E2B1E414
:201EA0008093D0039093D103A093D203B093D303E7CFC0901A01D0901B01E0901C01F0907A
:201EC0001D018091B5039091B603019709F08CC01092B6031092B50320910001309101013A
:201EE0004091020150910301C701B6010E945F1D6B017C0120E030E0A9010E94C61B40E046
:201F000050E06AEC72E487FD19C020911201309113014091140150911501C701B6010E94F1
:201F20002C1C0E94451E6B017C01C114D104E104F10479F440E050E06CEC72E487E5FF9081
:201F4000EF90DF90CF90BF90AF909F908F900C94990B80909B0390909C03A0909D03B09097
:201F60009E0381149104A104B10459F00E948502681979098A099B09603E734984409105DC
:201F8000C8F20E94850260939B0370939C0380939D0390939E0381E090E09093A403809306
:201FA000A30321E030E046E857E0C701B6010E94910280E090E0A0E2B1E48093D003909361
:201FC000D103A093D203B093D303C701B6010E94CB1BAB01BC0187E50E94990B40E050E09A
:201FE00060E87FE388E5ABCF2091AB033091AC034091AD035091AE03C701B6010E945F1DD1
:20200000209116013091170140911801509119010E942C1C4B015C0120E030E0A9010E944B
:20202000C61B87FF28C01092D0031092D1031092D2031092D3038091BF039091C003019728
:2020400009F41ECF6091D0037091D1038091D2039091D30341E00E948B07AB01BC018BE3F4
:202060000E94990B41E0C701B6010E948B07AB01BC0189E364CF20E030E040E251E4C50111
:20208000B4010E94741E18164CF08092D0039092D103A092D203B092D303CDCF80E090E087
:2020A000A0E2B1E48093D0039093D103A093D203B093D303C0CF4F925F926F927F928F9277
:2020C0009F92AF92BF92CF92DF92EF92FF92CF93DF93CDB7DEB764970FB6F894DEBF0FBEB6
:2020E000CDBFA090BF03B090C003A114B104C1F460E083E064960FB6F894DEBF0FBECDBF5C
:20210000DF91CF91FF90EF90DF90CF90BF90AF909F908F907F906F905F904F900C94C401F6
:202120008091B3039091B403892B11F78091BD039091BE03892BE1F68091AF039091B0036F
:20214000892BB1F60E948502C090C603D090C703E090C803F090C9039B01AC012C193D095D
:202160004E095F0969017A0140902A0150902B0160902C0170902D01C414D504E604F704D3
:2021800008F4E2C131E0A316B10409F0AEC20E941A0F8091A3039091A403019749F41092F7
:2021A000A7031092A8031092A9031092AA03BFC180911A0190911B01A0911C01B0911D01F5
:2021C00089879A87AB87BC872091000130910101409102015091030129833A834B835C8315
:2021E000BC01CD010E945F1D27E137EB41ED58E30E942C1C6B017C0120E030E0A901609125
:202200009F037091A0038091A1039091A2030E94C61B81110CC089819A81AB81BC8180937B
:202220009F039093A003A093A103B093A2032091D0033091D1034091D2035091D3032D8351
:202240003E834F8358878091A7039091A803A091A903B091AA038D879E87AF87B88B9C016B
:20226000AD016D817E818F8198850E94601D4B015C0120E030E0A9010E94C61B18164CF027
:2022800020E030E0A901C701B6010E94C61B87FD1CC020E030E040E251E4C501B4010E949E
:2022A000741E87FDD1C120E030E0A901C701B6010E94741E18160CF0C7C11092CC03109244
:2022C000CD031092CE031092CF038090CC039090CD03A090CE03B090CF0320E030E0A901AB
:2022E000C501B4010E94C61B87FFC3C120E030E0A901C701B6010E94741E18160CF0B9C1C5
:202300001092CC031092CD031092CE031092CF038090CC039090CD03A090CE03B090CF0311
:2023200020E030E040E050ECC501B4010E94C61B87FFB3C180E090E0A0E0B0EC8093CC036B
:202340009093CD03A093CE03B093CF0320912601309127014091280150912901C701B6012C
:202360000E942C1C698B7A8B8B8B9C8B2091CC033091CD034091CE035091CF0360912201C3
:202380007091230180912401909125010E942C1C4B015C0129813A814B815C8160919F0367
:2023A0007091A0038091A1039091A2030E945F1D27E137EB41ED58E30E942C1C20911E0193
:2023C00030911F0140912001509121010E942C1C6B017C0129813A814B815C8120939F03F1
:2023E0003093A0034093A1035093A20329893A894B895C896D857E858F8598890E94601D01
:20240000A50194010E94601DA70196010E94601D6B017C01C092A703D092A803E092A903F4
:20242000F092AA0320E030E040E450EC0E94C61B87FF43C11092CC031092CD031092CE039A
:202440001092CF0380E090E0A0E4B0EC8093A7039093A803A093A903B093AA038090A70304
:202460009090A803A090A903B090AA03A50194016D817E818F8198850E94601D6B017C016B
:2024800020E030E0A9010E94C61BA701960187FD14C020E030E040E251E4C701B6010E94E0
:2024A000741E1816B4F420E030E040E251E4C701B6010E945F1D9B01AC01C501B4010E944A
:2024C0005F1D6093A7037093A8038093A9039093AA03C090A703D090A803E090A903F09005
:2024E000AA03A70196016D817E818F8198850E94601D41E00E948B07AB01BC018BE30E94E9
:20250000990B42E0C701B6010E948B07AB01BC0182E50E94990B41E069857A858B859C85ED
:202520000E948B07AB01BC0189E30E94990B0E9485026093C6037093C7038093C803909399
:20254000C903C12CD12C76012091A7033091A8034091A9035091AA036091D0037091D103E3
:202560008091D2039091D3030E94601D4B015C012DEC3CEC4CEC5DE30E94C61B87FDBDC079
:2025800026E636E64EE151E4C501B4010E94741E18160CF4B6C020E030E040E251E4C5012F
:2025A000B4010E94CC1D4B015C01C301B2010E94CB1B9B01AC01C501B4010E942C1C0E94E3
:2025C000451E2091A5033091A603232B09F09CC0C616D706E806F90630F481E090E0909374
:2025E000A6038093A50320E030E048E052E4609100017091010180910201909103010E9439
:20260000741E181624F41092A6031092A50320E030E04AE753E46091B9037091BA03809159
:20262000BB039091BC030E94741E181624F41092A6031092A5038091A5039091A6030197D2
:2026400009F056CD61E055CDA70196016091CC037091CD038091CE039091CF030E94601D37
:202660006093CC037093CD038093CE039093CF032CCE20E030E0A901C501B4010E94741E89
:2026800018160CF045CE20E030E0A901C701B6010E94C61B87FD34CE3BCE20E030E040E082
:2026A00050E4C501B4010E94741E18160CF04ECE80E090E0A0E0B0E441CE20E030E040E4CA
:2026C00050E4C701B6010E94741E18160CF0C6CE1092CC031092CD031092CE031092CF038B
:2026E00080E090E0A0E4B0E4B1CE32E0A316B10409F01DCF0E941A0F52CD60E070E0CB01C8
:2027000060CFC301B2015DCFC616D706E806F90608F469CF641575058605970508F063CFC9
:202720001092A6031092A5035ECFCF92DF92EF92FF920F931F93CF93DF9300D000D000D05B
:20274000CDB7DEB700915705109158050115110599F41092EF031092EE0326960FB6F89488
:20276000DEBF0FBECDBFDF91CF911F910F91FF90EF90DF90CF9008958091F0039091F103B1
:20278000892B79F021E030E045E953E16AE070E080E090E00E9491029093EF038093EE03F1
:2027A000DCCF015011091A8219821C821B821E821D8281E1809FF001819FF00D1124E55554
:2027C000FB4F628573856115710531F046855785CE0101960E945A0B81E1809FF001819F1D
:2027E000F00D1124E555FB4F86819781A085B1852581408151816281738134813093D80346
:2028000051602223F9F0CD80DE80E980FA80E9EDF3E090E080E0282F8C159D0509F44BC030
:202820008830910509F446C0D701A80FB91FE114F10421F410929A03AAE9B3E02C9121930B
:202840000196E9CF8093D9039093DA03A093DB03B093DC0340930606509307066093080637
:2028600070930906109213061092050685E080930A06E8EDF3E0ABE0B6E081918D9383E0F8
:20288000E03EF807D1F70E949A08F82ECE0101960E94520BF11029C08091570590915805AF
:2028A0000097C1F561EF72E080915505909156050E942D0B28E0409306065093070660939E
:2028C00008067093090610921306109205062F5F20930A06E8EDF3E0ABE0B6E081918D9324
:2028E00083E0E03EF807D1F7CECF81E1809FF001819FF00D1124E555FB4F80898F5F808BA9
:20290000863050F68091570590915805892B09F420CF38CF01979093580580935705F2CFE1
:20292000EF92FF920F931F93CF93DF93EC018B0188E2FB0111928A95E9F761E08E810E94EA
:20294000F20160E08E810E94C4018BE99FE00197F1F761E08E810E94C40168858E810E9406
:20296000F2018BE990E00197F1F7E881F9810088F189E02D26E030E04AE050E060E0CE018F
:2029800009956E317105810591056CF4982F872F762F66276061CB01DF91CF911F910F91AC
:2029A000FF90EF900895E881F9810088F189E02D26E030E04AE050E061E0CE0109957801E3
:2029C000F8E2EF0EF11C623371058105910534F4982F872F762F66276161DDCFE881F981C4
:2029E0000088F189E02D26E030E04AE050E060E0CE010995683171058105910534F4982F91
:202A0000872F762F66276261C6CFE881F9810088F189E02D26E030E04AE050E061E0CE0104
:202A200009956B3071058105910534F4982F872F762F66276361AFCF21E06932710581051A
:202A400091050CF420E0F80121938F01EE16FF0629F6E881F9810088F189E02D26E030E073
:202A60004AE050E060E0CE010995683171058105910534F4982F872F762F662764618BCF2E
:202A800070E060E088CF1F920F920FB60F9211242F933F938F939F93AF93BF938091E603EC
:202AA0009091E703A091E803B091E9033091E50323E0230F2D3758F50196A11DB11D20935D
:202AC000E5038093E6039093E703A093E803B093E9038091EA039091EB03A091EC03B0914A
:202AE000ED030196A11DB11D8093EA039093EB03A093EC03B093ED03BF91AF919F918F917D
:202B00003F912F910F900FBE0F901F90189526E8230F0296A11DB11DD2CF1F920F920FB6A2
:202B20000F9211242F933F934F935F936F937F938F939F93AF93BF93EF93FF9382EF93E063
:202B40000E945E03FF91EF91BF91AF919F918F917F916F915F914F913F912F910F900FBEA6
:202B60000F901F9018951F920F920FB60F9211242F938F939F93EF93FF93E0910204F0914B
:202B800003048081E0910804F091090482FD1BC0908180910B048F5F8F7320910C0482174D
:202BA00041F0E0910B04F0E0EE50FC4F958F80930B04FF91EF919F918F912F910F900FBE39
:202BC0000F901F9018958081F4CFCF93DF931092F5031092F40388EE93E0A0E0B0E0809323
:202BE000F6039093F703A093F803B093F9038BE391E09093F3038093F20385EC90E090934E
:202C0000FF038093FE0384EC90E0909301048093000480EC90E0909303048093020481ECF3
:202C200090E0909305048093040482EC90E0909307048093060486EC90E09093090480938F
:202C4000080410920B0410920C0410920D0410920E048DE080938F0482E1809391048CE014
:202C60008093900461E082E10E94F20161E080918F040E94F20160E0809190040E94F20180
:202C800061E0809191040E94C4018AE08093150661E00E94C40161E0809115060E94F201A4
:202CA0000E948502C5EED5E0E1E8F5E049E555E0199211921192DA016D937D938D939D9356
:202CC000AD019F01225B3F4FD9011D921C92B5E0E539FB0769F71092040610920306CBEA43
:202CE000D4E01B861A861D861C861F861E8650E040E065E372E0CE010A960E945A0B6196FA
:202D000025E0C535D20769F7109258051092570510925605109255058DE491E09093A104DB
:202D20008093A00480E291EAA7E0B0E08093A2049093A304A093A404B093A5048FEF9FEF92
:202D40009093A7048093A6041092A8048093A9048093AA0466E070E080EA94E00E943706C6
:202D600089E691E09093A1048093A00460E087E00E94F201E5EDF0E0E491E0939204E1ECCB
:202D8000F0E0E491F0E0EE0FFF1FE055FF4F85919491909394048093930410929D041092FB
:202DA0009F0410929E0410929C0410929B0410929A0410929904109298041092970410920D
:202DC000960410929504DF91CF910895789484B5826084BD84B5816084BD85B5826085BD90
:202DE00085B5816085BD80916E00816080936E001092810080918100826080938100809159
:202E00008100816080938100809180008160809380008091B10084608093B1008091B0008C
:202E200081608093B00080917A00846080937A0080917A00826080937A0080917A0081608C
:202E400080937A0080917A00806880937A001092C10068EE73E080E090E00E94530284E0AE
:202E600090E0909311018093100161E082E10E94F20161E082E10E94C40130E020E04DE008
:202E80005AE060ED77E080E090E00E94910261E085E00E94F20160E085E00E94C40160E0C8
:202EA00084E00E94F20161E08DE00E94F20160E08DE00E94C40161E083E00E94F20160E049
:202EC00083E00E94C40161E080E10E94F20161E081E10E94F20160E080E10E94C40160E071
:202EE00081E10E94C40181E090E09093CB038093CA030E942807CFB7F8948091C503811119
:202F000027C0E4ECF0E08491E8EDF0E09491E82FF0E0EE0FFF1FE857FF4FA591B491EC91C4
:202F2000E92321F461E08AE00E94C40161E08AE00E94F2018CB580618CBD8CB580648CBD45
:202F400061E08DE00E94F20161E08BE00E94F2018091C5038F5F8093C503CFBF80E591E0E7
:202F60000E94D60060E0809115060E94C40180EC0E94B60761E0809115060E94C40183E202
:202F800090E00197F1F780E48093160680E80E940508882309F438C186E392E00E94AC0AC3
:202FA00080E00E94030B80E00E94B10A81E00E94B10A81E00E94030B82E00E94B10A83E053
:202FC0000E94B10A84E00E94B10A85E00E94B10A1092160680E00E94050860E089E00E94F9
:202FE000F20130E020E042E25CE068EE73E080E090E00E94910264E670E080E090E00E94B4
:20300000530230E020E04DE657E068E873E180E090E00E94910266E970E080E090E00E9427
:20302000530230E020E04BE550E162E370E080E090E00E9491020E9485026093C603709348
:20304000C7038093C8039093C90302E010E020E0222E20E0322E0E9485024B015C01E1E8BC
:20306000F5E0A9E5B5E090E080E0AF0142595F4FEA0119821882208131813296232BA1F174
:203080004D915D916D917C911397DC96CD90DD90ED90FC90DF9724013501441A550A660A6C
:2030A000770A4C145D046E047F04F0F04C0D5D1D6E1D7F1D4D935D936D937C9313979C01D9
:2030C0002B513A4FE9012881222371F022AD33AD2115310509F01EC19F0124593F4F41E0F3
:2030E00050E0E90159834883019614968A30910509F0BBCF9FEEC92E95E0D92EF12CE12CD1
:20310000F601819191916F018130910509F423C1029709F427C1FFEFEF1AFF0A4AE0E4164A
:20312000F10471F789E00E949B01019709F44AC180E591E00E94D60060E0809115060E948F
:20314000C40180EA0E94B60780E00E94B607F82E61E0809115060E94C401F0FE0DC181E605
:203160000E948A0940E061E08CE20E94DE0780910506882389F08091060690910706A09108
:203180000806B0910906B0688093060690930706A0930806B093090680911306882389F089
:2031A0008091060690910706A0910806B0910906B0648093060690930706A0930806B0934E
:2031C00009068091060690910706A0910806B09109068093E1039093E203A093E303B093AB
:2031E000E40380910A068093E003ABE0B6E0E8EDF3E090E09F01285D3340281739070CF085
:20320000C3C02D912193F6CF89E293E00E94AC0A61E48AE20E94790865EE89E20E94790809
:2032200063E888E20E94790883E593E00E94AC0A20E030E0A90161E080E20E94450820E037
:2032400030E0A90161E084E20E94450820E030E0A90161E080E00E94450820E030E0A9011A
:2032600060E084E00E94450820E030E0A90161E088E00E94450820E030E0A90160E080E10E
:203280000E94450820E030E0A90161E084E10E94450820E030E0A90160E088E10E9445089E
:2032A000C0E360E08C2F0E94790860E080E18C0F0E94790860E080E28C0F0E947908CF5F60
:2032C000CE3379F760E080E60E94790860E080E70E94790863E08BE20E9479086CE38CE05C
:2032E0000E94790860E08DE00E94790844E064E680E60E94DE0740E060E680E70E94DE072C
:20330000809116060E940508882309F449CE82E793E044CE6F015EE4C50ED11CE601E88063
:20332000F980E216F3060CF0DFCEAF0144595F4F61E070E0EA01798368837FEFE71AF70AAC
:20334000E601F982E882E216F3060CF4CDCEEA0119830883C9CEE057F1090190F081E02D2C
:203360000995D9CEE057F1090190F081E02D0995C7010E949D00CFCEF1FE06C081E70E94C7
:203380008A0940E062E0F0CE8091D8038A35D1F09091E0039530B1F4C090D903D090DA0337
:2033A000E090DB03F090DC038B3309F497C020F5843309F48AC090F4823309F474C083331B
:2033C00009F47AC02114310409F445CE0E944A03882309F440CE0E9400003DCE883309F432
:2033E00086C0893379F7C0921A01D0921B01E0921C01F0921D0132C0833581F148F48C332A
:2034000081F18334F9F61092D5031092D403DACF863509F475C08D3559F0853599F6C09265
:203420001601D0921701E0921801F092190116C0C701B6010E943E1E6B016C5A7B4D072E52
:20344000000C880B990B0E94CD1BAB01BC018AE50E94990BD092D703C092D6030E944A0628
:20346000B1CF20E030E040E85FE3C701B6010E94C61B87FF06C0C12CD12C80E8E82E8FE32A
:20348000F82EC701B6010E943E1EDB0128EE33E00E94521D60932A0170932B0180932C01E6
:2034A00090932D01DBCFC0922601D0922701E0922801F0922901D2CFC0922201D09223012B
:2034C000E0922401F0922501C9CFC0921E01D0921F01E0922001F0922101C0CFC092D00337
:2034E000D092D103E092D203F092D303B7CF1092CC031092CD031092CE031092CF0362CF76
:20350000C0921201D0921301E0921401F0921501A5CFCF93DF9310925805109257051092CA
:20352000560510925505C5E5D5E06197CE010A960E94520B84E0CB3AD807B9F7DF91CF91A7
:2035400008950F931F93CF93DF938230910510F482E090E0E0911906F0911A0630E020E047
:20356000B0E0A0E0309799F42115310509F44AC0281B390B24303105D8F58A819B816115F9
:20358000710589F1FB0193838283FE0111C0408151810281138148175907E0F0481759075C
:2035A00099F4109761F012960C93129713961C933296CF01DF91CF911F910F910895009356
:2035C000190610931A06F4CF2115310551F04217530738F0A901DB019A01BD01DF01F80106
:2035E000C1CFEF01F9CF90931A0680931906CDCFFE01E20FF31F81939193225031093983D0
:203600002883D7CF2091170630911806232B41F420913001309131013093180620931706A3
:2036200020912E0130912F012115310541F42DB73EB74091320150913301241B350BE09136
:203640001706F0911806E217F307A0F42E1B3F0B2817390778F0AC014E5F5F4F241735072E
:2036600048F04E0F5F1F5093180640931706819391939FCFF0E0E0E09CCFCF93DF9300973A
:20368000E9F0FC01329713821282A0911906B0911A06ED0130E020E01097A1F42081318124
:2036A000820F931F20911706309118062817390709F061C0F0931806E0931706DF91CF9180
:2036C0000895EA01CE17DF07E8F54A815B819E0141155105B1F7E901FB83EA834991599187
:2036E000C40FD51FEC17FD0761F4808191810296840F951FE90199838883828193819B836F
:203700008A83F0E0E0E012968D919C9113970097B9F52D913C911197CD010296820F931F4E
:2037200020911706309118062817390739F6309751F510921A0610921906B0931806A0930A
:203740001706BCCFD383C28340815181840F951FC817D90761F44E5F5F4F88819981480F63
:20376000591F518340838A819B81938382832115310509F0B0CFF0931A06E09319069ECF72
:20378000FD01DC01C0CF13821282D7CF0E94081C08F481E00895E89409C097FB3EF4909502
:2037A0008095709561957F4F8F4F9F4F9923A9F0F92F96E9BB279395F695879577956795AA
:2037C000B795F111F8CFFAF4BB0F11F460FF1BC06F5F7F4F8F4F9F4F16C0882311F096E974
:2037E00011C0772321F09EE8872F762F05C0662371F096E8862F70E060E02AF09A95660F3C
:20380000771F881FDAF7880F9695879597F90895990F0008550FAA0BE0E8FEEF16161706C8
:20382000E807F907C0F012161306E407F50798F0621B730B840B950B39F40A2661F0232B13
:20384000242B252B21F408950A2609F4A140A6958FEF811D811D08950E943F1C0C94B01C0E
:203860000E94A21C38F00E94A91C20F0952311F00C94991C0C949F1C11240C94E41C0E9469
:20388000C11C70F3959FC1F3950F50E0551F629FF001729FBB27F00DB11D639FAA27F00D38
:2038A000B11DAA1F649F6627B00DA11D661F829F2227B00DA11D621F739FB00DA11D621F6D
:2038C000839FA00D611D221F749F3327A00D611D231F849F600D211D822F762F6A2F11248E
:2038E0009F5750409AF0F1F088234AF0EE0FFF1FBB1F661F771F881F91505040A9F79E3F4D
:20390000510580F00C94991C0C94E41C5F3FE4F3983ED4F3869577956795B795F795E79563
:203920009F5FC1F7FE2B880F911D9695879597F9089597F99F6780E870E060E008959FEF36
:2039400080EC089500240A941616170618060906089500240A9412161306140605060895C4
:20396000092E0394000C11F4882352F0BB0F40F4BF2B11F460FF04C06F5F7F4F8F4F9F4F03
:20398000089557FD9058440F551F59F05F3F71F04795880F97FB991F61F09F3F79F08795CE
:2039A0000895121613061406551FF2CF4695F1DF08C0161617061806991FF1CF86957105F7
:2039C000610508940895E894BB2766277727CB0197F908952F923F924F925F926F927F9250
:2039E0008F929F92AF92BF92CF92DF92EF92FF920F931F93CF93DF93CDB7DEB7CA1BDB0BF3
:203A00000FB6F894DEBF0FBECDBF09942A88398848885F846E847D848C849B84AA84B9840F
:203A2000C884DF80EE80FD800C811B81AA81B981CE0FD11D0FB6F894DEBF0FBECDBFED0162
:203A40000895A29FB001B39FC001A39F700D811D1124911DB29F700D811D1124911D089598
:203A6000A1E21A2EAA1BBB1BFD010DC0AA1FBB1FEE1FFF1FA217B307E407F50720F0A21B20
:203A8000B30BE40BF50B661F771F881F991F1A9469F760957095809590959B01AC01BD01B6
:203AA000CF0108950E94211DB7FF0895821B930B0895EE0FFF1F0590F491E02D0994505807
:203AC000BB27AA270E94771D0C94B01C0E94A21C38F00E94A91C20F039F49F3F19F426F460
:203AE0000C949F1C0EF4E095E7FB0C94991CE92F0E94C11C58F3BA17620773078407950700
:203B000020F079F4A6F50C94E31C0EF4E0950B2EBA2FA02D0B01B90190010C01CA01A001B8
:203B20001124FF27591B99F0593F50F4503E68F11A16F040A22F232F342F4427585FF3CFA0
:203B4000469537952795A795F0405395C9F77EF41F16BA0B620B730B840BBAF09150A1F0EC
:203B6000FF0FBB1F661F771F881FC2F70EC0BA0F621F731F841F48F4879577956795B795E9
:203B8000F7959E3F08F0B0CF9395880F08F09927EE0F9795879508950E94E01D0C94B01CE1
:203BA0000E94A91C58F00E94A21C40F029F45F3F29F00C94991C51110C94E41C0C949F1C40
:203BC0000E94C11C68F39923B1F3552391F3951B550BBB27AA2762177307840738F09F5F48
:203BE0005F4F220F331F441FAA1FA9F335D00E2E3AF0E0E832D091505040E695001CCAF7CE
:203C00002BD0FE2F29D0660F771F881FBB1F261737074807AB07B0E809F0BB0B802DBF01B7
:203C2000FF2793585F4F3AF09E3F510578F00C94991C0C94E41C5F3FE4F3983ED4F38695DE
:203C400077956795B795F7959F5FC9F7880F911D9695879597F90895E1E0660F771F881F9A
:203C6000BB1F621773078407BA0720F0621B730B840BBA0BEE1F88F7E09508950E94451E29
:203C80006894B1110C94E41C08950E94C91C88F09F5798F0B92F9927B751B0F0E1F0660F16
:203CA000771F881F991F1AF0BA95C9F714C0B13091F00E94E31CB1E008950C94E31C672FBC
:203CC000782F8827B85F39F0B93FCCF3869577956795B395D9F73EF49095809570956195F5
:203CE0007F4F8F4F9F4F08950E94081C08F48FEF0895B0E0A0E0EFE7FEE10C94EC1C8C01B6
:203D0000009751F4CB010E94A11A8C01C801CDB7DEB7E0E10C94081DFC01E60FF71F9C0104
:203D200022503109E217F30708F49DC0D901CD91DC911197C617D70798F0C530D10530F30D
:203D4000CE0104978617970708F3C61BD70B2297C193D1936D937C93CF010E943D1BD6CF11
:203D60005B01AC1ABD0A4C018C0E9D1EA0911906B0911A06512C412CF12CE12C109731F526
:203D800080911706909118068815990509F05CC04616570608F058C080912E0190912F010C
:203DA000009741F48DB79EB74091320150913301841B950BE817F90708F055C0F093180699
:203DC000E0931706F90171836083A0CF8D919C91119712966C90129713967C901397A815B7
:203DE000B90559F56C0142E0C40ED11CCA14DB0420F1AC014A195B09DA011296159780F088
:203E00006282738251834083D9016D937C93E114F10471F0D7011396FC93EE93129776CF7F
:203E200022968C0F9D1FF90191838083F301EFCFF0931A06E093190669CF4816590608F48A
:203E40002C017D01D3019ACFCB010E94A11A7C01009749F0AE01B8010E943B1FC8010E9435
:203E60003D1B870153CF10E000E050CF81E090E0F8940C944B1FFB01DC0102C001900D921F
:203E800041505040D8F70895FB01DC0101900D920020E1F7089510E0C2E7D0E004C0FE01EB
:203EA0000E94591D2196C337D107C9F7F894FFCF0000A0410000C07FFFFF00002042FFFFC9
:203EC000020000007A457B14AE3E0000A041000040400000003F00000040D00700000000EF
:203EE0001B068000304050000000008003E0020D03CD033E031C0330030000000037062C20
:203F000006D105AE05500B500BAA05A60530052005500BBC040000000037062C06D105AE9A
:203F2000051004ED03AA05A605300520059014BC045374617274696E6720746F20536574C5
:203F40002046696C746572210D0A00456E74657220436F6E66696775726174696F6E204DC0
:203F60006F6465204661696C7572652E2E2E0D0A00456E746572696E672050726576696FAF
:203F80007573204D6F6465204661696C7572652E2E2E0D0A53657474696E672046696C747E
:203FA0006572204661696C7572652E2E2E0D0A0053657474696E672046696C7465722053CA
:203FC00075636365737366756C6C210D0A005374617274696E6720746F20536574204D6107
:203FE000736B210D0A00456E746572696E6720436F6E66696775726174696F6E204D6F64B7
:2040000065204661696C7572652E2E2E0D0A00456E746572696E672050726576696F7573F9
:20402000204D6F6465204661696C7572652E2E2E0D0A53657474696E67204D61736B204662
:2040400061696C7572652E2E2E0D0A0053657474696E67204D61736B2053756363657373BA
:2040600066756C210D0A0051554555453A20696E73756666696369656E74206669786564AB
:204080002061727261792073697A6520746F2070757368206D6F72652E004149524F55544E
:2040A0000051554555453A2063616E277420706F70206974656D2066726F6D206669786576
:2040C000642061727261793A20717565756520697320656D7074792E00456E746572696E70
:2040E0006720436F6E66696775726174696F6E204D6F6465205375636365737366756C21DB
:204100000D0A0053657474696E67204261756472617465205375636365737366756C210DF4
:204120000A0052657475726E696E6720746F2050726576696F7573204D6F64652046616962
:204140006C7572652E2E2E0D0A00FFFFFFFFFFFFFFFFFFFFFFFFFFFFFFFFFFFFFFFFFFFF1C
:20416000FFFFFFFFFFFFFFFFFFFFFFFFFFFFFFFFFFFFFFFFFFFFFFFFFFFFFFFFFFFFFFFF5F
:204180006D702073656E736F7220435243206661696C757265202D200052656164204453E8
:2041A000206661696C65642100456E746572696E6720436F6E66696775726174696F6E2085
:2041C0004D6F6465204661696C7572652E2E2E0D0A00456E746572696E6720436F6E666986
:2041E0006775726174696F6E204D6F6465205375636365737366756C210D0A005365747499
:20420000696E67204261756472617465205375636365737366756C210D0A0052657475728E
:204220006E696E6720746F2050726576696F7573204D6F6465204661696C7572652E2E2E3B
:204240000D0A0021205761726E696E673A20726563656976656420756E6E65656465642007
:2042600043414E206D6573736167653A205650494E3D0020466C6F617456616C75653D0043
:204280004572726F7220496E697469616C697A696E672043414E2062757320647269766573
:2042A00072204D4350323531352E2E2E005445483A204B54435F4D415836363735203D207E
:2042C0000051554555453A2063616E277420706F70206974656D2066726F6D207175657540
:2042E000653A20717565756520697320656D7074792E0043616E27742061646420746F2048
:2043000071756575653A2043414E207175657565206F766572666C6F7721005155455545CD
:204320003A20696E73756666696369656E74206D656D6F727920746F2063726561746520AC
:2043400061206E6577206E6F64652E006E616E00696E66006F766600FFFFFFFFFFFFFFFFE1
:20436000FFFFFFFFFFFFFFFFFFFFFFFFFFFFFFFFFFFFFFFFFFFFFFFFFFFFFFFFFFFFFFFF5D
:20438000414E207175657565206F766572666C6F77210051554555453A20696E737566662A
:2043A000696369656E74206D656D6F727920746F206372656174652061206E6577206E6F49
:2043C00064652E006E616E00696E66006F766600FFFFFFFFFFFFFFFFFFFFFFFFFFFFFFFF31
:2043E000FFFFFFFFFFFFFFFFFFFFFFFFFFFFFFFFFFFFFFFFFFFFFFFFFFFFFFFFFFFFFFFFDD
:20440000FFFFFFFFFFFFFFFFFFFFFFFFFFFFFFFFFFFFFFFFFFFFFFFFFFFFFFFFFFFFFFFFBC
:20442000FFFFFFFFFFFFFFFFFFFFFFFFFFFFFFFFFFFFFFFFFFFFFFFFFFFFFFFFFFFFFFFF9C
:20444000FFFFFFFFFFFFFFFFFFFFFFFFFFFFFFFFFFFFFFFFFFFFFFFFFFFFFFFFFFFFFFFF7C
:207800000C94343C0C94513C0C94513C0C94513C0C94513C0C94513C0C94513C0C94513C1D
:207820000C94513C0C94513C0C94513C0C94513C0C94513C0C94513C0C94513C0C94513CE0
:207840000C94513C0C94513C0C94513C0C94513C0C94513C0C94513C0C94513C0C94513CC0
:207860000C94513C0C94513C11241FBECFEFD8E0DEBFCDBF11E0A0E0B1E0ECE9FFE702C07E
:2078800005900D92A230B107D9F712E0A2E0B1E001C01D92AD30B107E1F70E942D3D0C94CC
:2078A000CC3F0C94003C982F9595959595959595905D8F708A307CF0282F295A8091C000B5
:2078C00085FFFCCF9093C6008091C00085FFFCCF2093C6000895282F205DF0CF982F8091CF
:2078E000C00085FFFCCF9093C6000895EF92FF920F931F93EE24FF2487018091C00087FD7B
:2079000017C00894E11CF11C011D111D81E4E81682E4F8068FE0080780E0180770F3E09106
:207920000401F091050109958091C00087FFE9CF8091C6001F910F91FF90EF9008950E949A
:20794000763C982F8091C00085FFFCCF9093C60091362CF490330CF09053892F08959755DB
:20796000892F08951F930E949F3C182F0E949F3C1295107F810F1F9108951F93182F882308
:2079800021F00E94763C1150E1F71F9108951F93182F0E94763C803249F0809103018F5FC1
:2079A000809303018530C1F01F9108958091C00085FFFCCF84E18093C6008091C00085FF4A
:2079C000FCCF1093C6008091C00085FFFCCF80E18093C6001F910895E0910401F0910501CF
:2079E00009951F9108950E94763C803241F0809103018F5F80930301853081F00895809177
:207A0000C00085FFFCCF84E18093C6008091C00085FFFCCF80E18093C6000895E0910401AC
:207A2000F09105010995089540E951E08823A1F02D9A28EE33E0FA013197F1F72150304072
:207A4000D1F72D9828EE33E0FA013197F1F721503040D1F7815061F708953F924F925F92B3
:207A60006F927F928F929F92AF92BF92CF92DF92EF92FF920F931F93CF93DF93000080E1A3
:207A80008093C4001092C50088E18093C10086E08093C2005098589A259A81E00E94143D43
:207AA00024E1F22E9EE1E92E85E9D82E0FE0C02E10E1B12EAA24A394B1E49B2EA6E58A2E44
:207AC000F2E57F2EE0E26E2E79E4572E63E5462E50E5352E0E94763C8033B1F18133B9F187
:207AE000803409F46FC0813409F476C0823409F485C0853409F488C0803531F1823521F128
:207B0000813511F1853509F485C0863509F48DC0843609F496C0843709F403C1853709F46A
:207B200072C1863709F466C0809103018F5F80930301853079F6E0910401F0910501099559
:207B40000E94763C803351F60E94F33CC3CF0E94763C803249F78091C00085FFFCCFF0928C
:207B6000C6008091C00085FFFCCF9092C6008091C00085FFFCCF8092C6008091C00085FFEA
:207B8000FCCF7092C6008091C00085FFFCCF6092C6008091C00085FFFCCF5092C6008091A1
:207BA000C00085FFFCCF4092C6008091C00085FFFCCF3092C6008091C00085FFFCCFB09214
:207BC000C60088CF0E94763C863808F4BDCF0E94763C0E94F33C7ECF0E94763C803809F473
:207BE0009CC0813809F40BC1823809F43CC1883909F48FC080E00E94C73C6CCF84E10E949F
:207C0000BD3C0E94F33C66CF85E00E94BD3C0E94F33C60CF0E94763C809306010E94763CA3
:207C2000809307010E94F33C55CF0E94763C803309F41DC183E00E94BD3C80E00E94C73C4F
:207C400049CF0E94763C809309020E94763C8093080280910C028E7F80930C020E94763C88
:207C6000853409F415C18091080290910902892B89F000E010E00E94763CF801E85FFE4F53
:207C800080830F5F1F4F80910802909109020817190788F30E94763C803209F045CF8091E0
:207CA0000C0280FF01C16091060170910701660F771F7093070160930601A0910802B091E8
:207CC00009021097C9F0E8E0F1E09B01AD014E0F5F1FF999FECF32BD21BD819180BDFA9A6C
:207CE000F99A2F5F3F4FE417F50799F76A0F7B1F70930701609306018091C00085FFFCCF16
:207D0000F092C6008091C00085FFFCCFB092C600E1CE83E00E94C73CDDCE82E00E94C73C8A
:207D2000D9CE0E94763C809309020E94763C809308028091060190910701880F991F909306
:207D40000701809306010E94763C853409F4A6C080910C028E7F80930C020E94763C80323E
:207D600009F0B8CE8091C00085FFFCCFF092C600609108027091090261157105B9F140E05F
:207D800050E080910C02A82FA170B82FB27011C0BB2309F45CC0E0910601F0910701319613
:207DA000F0930701E09306014F5F5F4F46175707E8F4AA2369F3F999FECF209106013091CA
:207DC000070132BD21BDF89A90B58091C00085FFFCCF9093C6002F5F3F4F30930701209354
:207DE00006014F5F5F4F4617570718F38091C00085FDE5CE8091C00085FFF8CFE0CE81E029
:207E00000E94C73C67CE0E94763C803209F08CCE8091C00085FFFCCFF092C6008091C000F6
:207E200085FFFCCFE092C6008091C00085FFFCCFD092C6008091C00085FFFCCFC092C6003B
:207E40008091C00085FFFCCFB092C60043CEE0910601F091070194918091C00085FFFCCFA3
:207E60009093C6009CCF80E10E94C73C33CE0E94763C0E94763C182F0E94763C112309F433
:207E800083C0113009F484C08FE00E94C73C22CE80910C02816080930C02E5CE80910C0226
:207EA000816080930C0259CF809107018823880F880B8A2180930B0280910601909107019E
:207EC000880F991F90930701809306018091080280FF09C0809108029091090201969093AA
:207EE000090280930802F894F999FECF1127E0910601F0910701C8E0D1E0809108029091A1
:207F00000902103091F40091570001700130D9F303E000935700E895009157000170013067
:207F2000D9F301E100935700E895099019900091570001700130D9F301E000935700E8954C
:207F40001395103498F011270091570001700130D9F305E000935700E8950091570001707A
:207F60000130D9F301E100935700E8953296029709F0C7CF103011F00296E5CF11248091F8
:207F8000C00085FFB9CEBCCE8EE10E94C73CA2CD85E90E94C73C9ECDF894FFCF8000FFFFB3
:207FA000FFFFFFFFFFFFFFFFFFFFFFFFFFFFFFFFFFFFFFFFFFFFFFFFFFFFFFFFFFFFFFFFE1
:207FC000FFFFFFFFFFFFFFFFFFFFFFFFFFFFFFFFFFFFFFFFFFFFFFFFFFFFFFFFFFFFFFFFC1
:207FE000FFFFFFFFFFFFFFFFFFFFFFFFFFFFFFFFFFFFFFFFFFFFFFFFFFFFFFFFFFFFFFFFA1
:00000001FF
